{
  "contractName": "BCYMarket",
  "abi": [
    {
      "inputs": [],
      "stateMutability": "nonpayable",
      "type": "constructor"
    },
    {
      "anonymous": false,
      "inputs": [
        {
          "indexed": true,
          "internalType": "address",
          "name": "owner",
          "type": "address"
        },
        {
          "indexed": true,
          "internalType": "address",
          "name": "approved",
          "type": "address"
        },
        {
          "indexed": true,
          "internalType": "uint256",
          "name": "tokenId",
          "type": "uint256"
        }
      ],
      "name": "Approval",
      "type": "event"
    },
    {
      "anonymous": false,
      "inputs": [
        {
          "indexed": true,
          "internalType": "address",
          "name": "owner",
          "type": "address"
        },
        {
          "indexed": true,
          "internalType": "address",
          "name": "operator",
          "type": "address"
        },
        {
          "indexed": false,
          "internalType": "bool",
          "name": "approved",
          "type": "bool"
        }
      ],
      "name": "ApprovalForAll",
      "type": "event"
    },
    {
      "anonymous": false,
      "inputs": [
        {
          "indexed": false,
          "internalType": "uint256",
          "name": "_fromTokenId",
          "type": "uint256"
        },
        {
          "indexed": false,
          "internalType": "uint256",
          "name": "_toTokenId",
          "type": "uint256"
        }
      ],
      "name": "BatchMetadataUpdate",
      "type": "event"
    },
    {
      "anonymous": false,
      "inputs": [
        {
          "indexed": true,
          "internalType": "uint256",
          "name": "tokenId",
          "type": "uint256"
        },
        {
          "indexed": false,
          "internalType": "address",
          "name": "owner",
          "type": "address"
        },
        {
          "indexed": false,
          "internalType": "address",
          "name": "seller",
          "type": "address"
        },
        {
          "indexed": false,
          "internalType": "uint256",
          "name": "price",
          "type": "uint256"
        },
        {
          "indexed": false,
          "internalType": "bool",
          "name": "currentlyListed",
          "type": "bool"
        }
      ],
      "name": "ItemListedSuccess",
      "type": "event"
    },
    {
      "anonymous": false,
      "inputs": [
        {
          "indexed": false,
          "internalType": "uint256",
          "name": "_tokenId",
          "type": "uint256"
        }
      ],
      "name": "MetadataUpdate",
      "type": "event"
    },
    {
      "anonymous": false,
      "inputs": [
        {
          "indexed": true,
          "internalType": "address",
          "name": "from",
          "type": "address"
        },
        {
          "indexed": true,
          "internalType": "address",
          "name": "to",
          "type": "address"
        },
        {
          "indexed": true,
          "internalType": "uint256",
          "name": "tokenId",
          "type": "uint256"
        }
      ],
      "name": "Transfer",
      "type": "event"
    },
    {
      "inputs": [
        {
          "internalType": "address",
          "name": "to",
          "type": "address"
        },
        {
          "internalType": "uint256",
          "name": "tokenId",
          "type": "uint256"
        }
      ],
      "name": "approve",
      "outputs": [],
      "stateMutability": "nonpayable",
      "type": "function"
    },
    {
      "inputs": [
        {
          "internalType": "address",
          "name": "owner",
          "type": "address"
        }
      ],
      "name": "balanceOf",
      "outputs": [
        {
          "internalType": "uint256",
          "name": "",
          "type": "uint256"
        }
      ],
      "stateMutability": "view",
      "type": "function",
      "constant": true
    },
    {
      "inputs": [],
      "name": "bcyAddress",
      "outputs": [
        {
          "internalType": "contract IERC20",
          "name": "",
          "type": "address"
        }
      ],
      "stateMutability": "view",
      "type": "function",
      "constant": true
    },
    {
      "inputs": [
        {
          "internalType": "uint256",
          "name": "tokenId",
          "type": "uint256"
        }
      ],
      "name": "getApproved",
      "outputs": [
        {
          "internalType": "address",
          "name": "",
          "type": "address"
        }
      ],
      "stateMutability": "view",
      "type": "function",
      "constant": true
    },
    {
      "inputs": [
        {
          "internalType": "address",
          "name": "owner",
          "type": "address"
        },
        {
          "internalType": "address",
          "name": "operator",
          "type": "address"
        }
      ],
      "name": "isApprovedForAll",
      "outputs": [
        {
          "internalType": "bool",
          "name": "",
          "type": "bool"
        }
      ],
      "stateMutability": "view",
      "type": "function",
      "constant": true
    },
    {
      "inputs": [],
      "name": "name",
      "outputs": [
        {
          "internalType": "string",
          "name": "",
          "type": "string"
        }
      ],
      "stateMutability": "view",
      "type": "function",
      "constant": true
    },
    {
      "inputs": [
        {
          "internalType": "uint256",
          "name": "tokenId",
          "type": "uint256"
        }
      ],
      "name": "ownerOf",
      "outputs": [
        {
          "internalType": "address",
          "name": "",
          "type": "address"
        }
      ],
      "stateMutability": "view",
      "type": "function",
      "constant": true
    },
    {
      "inputs": [],
      "name": "rate",
      "outputs": [
        {
          "internalType": "uint256",
          "name": "",
          "type": "uint256"
        }
      ],
      "stateMutability": "view",
      "type": "function",
      "constant": true
    },
    {
      "inputs": [
        {
          "internalType": "address",
          "name": "from",
          "type": "address"
        },
        {
          "internalType": "address",
          "name": "to",
          "type": "address"
        },
        {
          "internalType": "uint256",
          "name": "tokenId",
          "type": "uint256"
        }
      ],
      "name": "safeTransferFrom",
      "outputs": [],
      "stateMutability": "nonpayable",
      "type": "function"
    },
    {
      "inputs": [
        {
          "internalType": "address",
          "name": "from",
          "type": "address"
        },
        {
          "internalType": "address",
          "name": "to",
          "type": "address"
        },
        {
          "internalType": "uint256",
          "name": "tokenId",
          "type": "uint256"
        },
        {
          "internalType": "bytes",
          "name": "data",
          "type": "bytes"
        }
      ],
      "name": "safeTransferFrom",
      "outputs": [],
      "stateMutability": "nonpayable",
      "type": "function"
    },
    {
      "inputs": [
        {
          "internalType": "address",
          "name": "operator",
          "type": "address"
        },
        {
          "internalType": "bool",
          "name": "approved",
          "type": "bool"
        }
      ],
      "name": "setApprovalForAll",
      "outputs": [],
      "stateMutability": "nonpayable",
      "type": "function"
    },
    {
      "inputs": [
        {
          "internalType": "bytes4",
          "name": "interfaceId",
          "type": "bytes4"
        }
      ],
      "name": "supportsInterface",
      "outputs": [
        {
          "internalType": "bool",
          "name": "",
          "type": "bool"
        }
      ],
      "stateMutability": "view",
      "type": "function",
      "constant": true
    },
    {
      "inputs": [],
      "name": "symbol",
      "outputs": [
        {
          "internalType": "string",
          "name": "",
          "type": "string"
        }
      ],
      "stateMutability": "view",
      "type": "function",
      "constant": true
    },
    {
      "inputs": [
        {
          "internalType": "uint256",
          "name": "tokenId",
          "type": "uint256"
        }
      ],
      "name": "tokenURI",
      "outputs": [
        {
          "internalType": "string",
          "name": "",
          "type": "string"
        }
      ],
      "stateMutability": "view",
      "type": "function",
      "constant": true
    },
    {
      "inputs": [
        {
          "internalType": "address",
          "name": "from",
          "type": "address"
        },
        {
          "internalType": "address",
          "name": "to",
          "type": "address"
        },
        {
          "internalType": "uint256",
          "name": "tokenId",
          "type": "uint256"
        }
      ],
      "name": "transferFrom",
      "outputs": [],
      "stateMutability": "nonpayable",
      "type": "function"
    },
    {
      "inputs": [
        {
          "internalType": "uint256",
          "name": "_listPrice",
          "type": "uint256"
        }
      ],
      "name": "updatePrice",
      "outputs": [],
      "stateMutability": "payable",
      "type": "function",
      "payable": true
    },
    {
      "inputs": [
        {
          "internalType": "string",
          "name": "tokenURI",
          "type": "string"
        },
        {
          "internalType": "uint256",
          "name": "price",
          "type": "uint256"
        }
      ],
      "name": "createMarketItem",
      "outputs": [
        {
          "internalType": "uint256",
          "name": "",
          "type": "uint256"
        }
      ],
      "stateMutability": "payable",
      "type": "function",
      "payable": true
    },
    {
      "inputs": [
        {
          "internalType": "uint256",
          "name": "tokenId",
          "type": "uint256"
        }
      ],
      "name": "removeMarketItem",
      "outputs": [],
      "stateMutability": "nonpayable",
      "type": "function"
    },
    {
      "inputs": [],
      "name": "getAllNFTs",
      "outputs": [
        {
          "components": [
            {
              "internalType": "uint256",
              "name": "tokenId",
              "type": "uint256"
            },
            {
              "internalType": "address payable",
              "name": "owner",
              "type": "address"
            },
            {
              "internalType": "address payable",
              "name": "seller",
              "type": "address"
            },
            {
              "internalType": "uint256",
              "name": "price",
              "type": "uint256"
            },
            {
              "internalType": "bool",
              "name": "currentlyListed",
              "type": "bool"
            }
          ],
          "internalType": "struct DataTypes.MarketItem[]",
          "name": "",
          "type": "tuple[]"
        }
      ],
      "stateMutability": "view",
      "type": "function",
      "constant": true
    },
    {
      "inputs": [],
      "name": "getMyNFTs",
      "outputs": [
        {
          "components": [
            {
              "internalType": "uint256",
              "name": "tokenId",
              "type": "uint256"
            },
            {
              "internalType": "address payable",
              "name": "owner",
              "type": "address"
            },
            {
              "internalType": "address payable",
              "name": "seller",
              "type": "address"
            },
            {
              "internalType": "uint256",
              "name": "price",
              "type": "uint256"
            },
            {
              "internalType": "bool",
              "name": "currentlyListed",
              "type": "bool"
            }
          ],
          "internalType": "struct DataTypes.MarketItem[]",
          "name": "",
          "type": "tuple[]"
        }
      ],
      "stateMutability": "view",
      "type": "function",
      "constant": true
    },
    {
      "inputs": [
        {
          "internalType": "uint256",
          "name": "tokenId",
          "type": "uint256"
        }
      ],
      "name": "sale",
      "outputs": [],
      "stateMutability": "payable",
      "type": "function",
      "payable": true
    },
    {
      "inputs": [],
      "name": "withdrawToken",
      "outputs": [],
      "stateMutability": "nonpayable",
      "type": "function"
    },
    {
      "inputs": [],
      "name": "getListPrice",
      "outputs": [
        {
          "internalType": "uint256",
          "name": "",
          "type": "uint256"
        }
      ],
      "stateMutability": "view",
      "type": "function",
      "constant": true
    },
    {
      "inputs": [],
      "name": "getLatestIdToListedItem",
      "outputs": [
        {
          "components": [
            {
              "internalType": "uint256",
              "name": "tokenId",
              "type": "uint256"
            },
            {
              "internalType": "address payable",
              "name": "owner",
              "type": "address"
            },
            {
              "internalType": "address payable",
              "name": "seller",
              "type": "address"
            },
            {
              "internalType": "uint256",
              "name": "price",
              "type": "uint256"
            },
            {
              "internalType": "bool",
              "name": "currentlyListed",
              "type": "bool"
            }
          ],
          "internalType": "struct DataTypes.MarketItem",
          "name": "",
          "type": "tuple"
        }
      ],
      "stateMutability": "view",
      "type": "function",
      "constant": true
    },
    {
      "inputs": [
        {
          "internalType": "uint256",
          "name": "tokenId",
          "type": "uint256"
        }
      ],
      "name": "getListedItemForId",
      "outputs": [
        {
          "components": [
            {
              "internalType": "uint256",
              "name": "tokenId",
              "type": "uint256"
            },
            {
              "internalType": "address payable",
              "name": "owner",
              "type": "address"
            },
            {
              "internalType": "address payable",
              "name": "seller",
              "type": "address"
            },
            {
              "internalType": "uint256",
              "name": "price",
              "type": "uint256"
            },
            {
              "internalType": "bool",
              "name": "currentlyListed",
              "type": "bool"
            }
          ],
          "internalType": "struct DataTypes.MarketItem",
          "name": "",
          "type": "tuple"
        }
      ],
      "stateMutability": "view",
      "type": "function",
      "constant": true
    },
    {
      "inputs": [],
      "name": "getCurrentToken",
      "outputs": [
        {
          "internalType": "uint256",
          "name": "",
          "type": "uint256"
        }
      ],
      "stateMutability": "view",
      "type": "function",
      "constant": true
    }
  ],
  "bytecode": "0x608060405268056bc75e2d6310000060015566038d7ea4c680006002553480156200002957600080fd5b506040518060400160405280600b81526020017f426c6f636b436f6e7665790000000000000000000000000000000000000000008152506040518060400160405280600381526020017f42435900000000000000000000000000000000000000000000000000000000008152508160049080519060200190620000ae92919062000165565b508060059080519060200190620000c792919062000165565b505050336000806101000a81548173ffffffffffffffffffffffffffffffffffffffff021916908373ffffffffffffffffffffffffffffffffffffffff160217905550733608631c72fa89c27de0f703a61907bf945133b1600d60006101000a81548173ffffffffffffffffffffffffffffffffffffffff021916908373ffffffffffffffffffffffffffffffffffffffff16021790555062000279565b828054620001739062000244565b90600052602060002090601f016020900481019282620001975760008555620001e3565b82601f10620001b257805160ff1916838001178555620001e3565b82800160010185558215620001e3579182015b82811115620001e2578251825591602001919060010190620001c5565b5b509050620001f29190620001f6565b5090565b5b8082111562000211576000816000905550600101620001f7565b5090565b7f4e487b7100000000000000000000000000000000000000000000000000000000600052602260045260246000fd5b600060028204905060018216806200025d57607f821691505b60208210810362000273576200027262000215565b5b50919050565b61445b80620002896000396000f3fe6080604052600436106101815760003560e01c806370a08231116100d1578063b88d4fde1161008a578063e0391b0911610064578063e0391b0914610566578063e85bea5d14610591578063e985e9c5146105c1578063ef2d1746146105fe57610181565b8063b88d4fde146104e9578063c87b56dd14610512578063ca628c781461054f57610181565b806370a08231146103f75780637fb770cb146104345780638d6cc56d1461045d57806395d89b411461047957806396032702146104a4578063a22cb465146104c057610181565b80632c4e722e1161013e578063629cb2e411610118578063629cb2e4146103275780636352211e1461035257806363d1d8931461038f57806368f1945f146103cc57610181565b80632c4e722e146102a857806342842e0e146102d357806344cbdc34146102fc57610181565b806301ffc9a71461018657806306fdde03146101c3578063081812fc146101ee578063095ea7b31461022b5780631e12f3641461025457806323b872dd1461027f575b600080fd5b34801561019257600080fd5b506101ad60048036038101906101a89190612e97565b610629565b6040516101ba9190612edf565b60405180910390f35b3480156101cf57600080fd5b506101d861068a565b6040516101e59190612f93565b60405180910390f35b3480156101fa57600080fd5b5061021560048036038101906102109190612feb565b61071c565b6040516102229190613059565b60405180910390f35b34801561023757600080fd5b50610252600480360381019061024d91906130a0565b610762565b005b34801561026057600080fd5b50610269610879565b6040516102769190613187565b60405180910390f35b34801561028b57600080fd5b506102a660048036038101906102a191906131a2565b61098e565b005b3480156102b457600080fd5b506102bd6109ee565b6040516102ca9190613204565b60405180910390f35b3480156102df57600080fd5b506102fa60048036038101906102f591906131a2565b6109f4565b005b34801561030857600080fd5b50610311610a14565b60405161031e919061327e565b60405180910390f35b34801561033357600080fd5b5061033c610a3a565b60405161034991906133b0565b60405180910390f35b34801561035e57600080fd5b5061037960048036038101906103749190612feb565b610e1b565b6040516103869190613059565b60405180910390f35b34801561039b57600080fd5b506103b660048036038101906103b19190612feb565b610ea1565b6040516103c39190613187565b60405180910390f35b3480156103d857600080fd5b506103e1610fa9565b6040516103ee9190613204565b60405180910390f35b34801561040357600080fd5b5061041e600480360381019061041991906133d2565b610fb3565b60405161042b9190613204565b60405180910390f35b34801561044057600080fd5b5061045b60048036038101906104569190612feb565b61106a565b005b61047760048036038101906104729190612feb565b611200565b005b34801561048557600080fd5b5061048e611298565b60405161049b9190612f93565b60405180910390f35b6104be60048036038101906104b99190612feb565b61132a565b005b3480156104cc57600080fd5b506104e760048036038101906104e2919061342b565b61151a565b005b3480156104f557600080fd5b50610510600480360381019061050b91906135a0565b611530565b005b34801561051e57600080fd5b5061053960048036038101906105349190612feb565b611592565b6040516105469190612f93565b60405180910390f35b34801561055b57600080fd5b506105646116a4565b005b34801561057257600080fd5b5061057b6117e2565b60405161058891906133b0565b60405180910390f35b6105ab60048036038101906105a691906136c4565b6119b5565b6040516105b89190613204565b60405180910390f35b3480156105cd57600080fd5b506105e860048036038101906105e39190613720565b611a9c565b6040516105f59190612edf565b60405180910390f35b34801561060a57600080fd5b50610613611b30565b6040516106209190613204565b60405180910390f35b6000634906490660e01b7bffffffffffffffffffffffffffffffffffffffffffffffffffffffff1916827bffffffffffffffffffffffffffffffffffffffffffffffffffffffff19161480610683575061068282611b41565b5b9050919050565b6060600480546106999061378f565b80601f01602080910402602001604051908101604052809291908181526020018280546106c59061378f565b80156107125780601f106106e757610100808354040283529160200191610712565b820191906000526020600020905b8154815290600101906020018083116106f557829003601f168201915b5050505050905090565b600061072782611c23565b6008600083815260200190815260200160002060009054906101000a900473ffffffffffffffffffffffffffffffffffffffff169050919050565b600061076d82610e1b565b90508073ffffffffffffffffffffffffffffffffffffffff168373ffffffffffffffffffffffffffffffffffffffff16036107dd576040517f08c379a00000000000000000000000000000000000000000000000000000000081526004016107d490613832565b60405180910390fd5b8073ffffffffffffffffffffffffffffffffffffffff166107fc611c6e565b73ffffffffffffffffffffffffffffffffffffffff16148061082b575061082a81610825611c6e565b611a9c565b5b61086a576040517f08c379a0000000000000000000000000000000000000000000000000000000008152600401610861906138c4565b60405180910390fd5b6108748383611c76565b505050565b610881612d2b565b600061088d600b611d2f565b9050600360008281526020019081526020016000206040518060a0016040529081600082015481526020016001820160009054906101000a900473ffffffffffffffffffffffffffffffffffffffff1673ffffffffffffffffffffffffffffffffffffffff1673ffffffffffffffffffffffffffffffffffffffff1681526020016002820160009054906101000a900473ffffffffffffffffffffffffffffffffffffffff1673ffffffffffffffffffffffffffffffffffffffff1673ffffffffffffffffffffffffffffffffffffffff168152602001600382015481526020016004820160009054906101000a900460ff16151515158152505091505090565b61099f610999611c6e565b82611d3d565b6109de576040517f08c379a00000000000000000000000000000000000000000000000000000000081526004016109d590613956565b60405180910390fd5b6109e9838383611dd2565b505050565b60015481565b610a0f83838360405180602001604052806000815250611530565b505050565b600d60009054906101000a900473ffffffffffffffffffffffffffffffffffffffff1681565b60606000610a48600b611d2f565b9050600080600080600090505b84811015610b6e573373ffffffffffffffffffffffffffffffffffffffff1660036000600184610a8591906139a5565b815260200190815260200160002060010160009054906101000a900473ffffffffffffffffffffffffffffffffffffffff1673ffffffffffffffffffffffffffffffffffffffff161480610b4657503373ffffffffffffffffffffffffffffffffffffffff1660036000600184610afc91906139a5565b815260200190815260200160002060020160009054906101000a900473ffffffffffffffffffffffffffffffffffffffff1673ffffffffffffffffffffffffffffffffffffffff16145b15610b5b57600184610b5891906139a5565b93505b8080610b66906139fb565b915050610a55565b5060008367ffffffffffffffff811115610b8b57610b8a613475565b5b604051908082528060200260200182016040528015610bc457816020015b610bb1612d2b565b815260200190600190039081610ba95790505b50905060005b85811015610e0f573373ffffffffffffffffffffffffffffffffffffffff1660036000600184610bfa91906139a5565b815260200190815260200160002060010160009054906101000a900473ffffffffffffffffffffffffffffffffffffffff1673ffffffffffffffffffffffffffffffffffffffff161480610cbb57503373ffffffffffffffffffffffffffffffffffffffff1660036000600184610c7191906139a5565b815260200190815260200160002060020160009054906101000a900473ffffffffffffffffffffffffffffffffffffffff1673ffffffffffffffffffffffffffffffffffffffff16145b15610dfc57600181610ccd91906139a5565b92506000600360008581526020019081526020016000209050806040518060a0016040529081600082015481526020016001820160009054906101000a900473ffffffffffffffffffffffffffffffffffffffff1673ffffffffffffffffffffffffffffffffffffffff1673ffffffffffffffffffffffffffffffffffffffff1681526020016002820160009054906101000a900473ffffffffffffffffffffffffffffffffffffffff1673ffffffffffffffffffffffffffffffffffffffff1673ffffffffffffffffffffffffffffffffffffffff168152602001600382015481526020016004820160009054906101000a900460ff161515151581525050838681518110610de057610ddf613a43565b5b6020026020010181905250600185610df891906139a5565b9450505b8080610e07906139fb565b915050610bca565b50809550505050505090565b600080610e27836120cb565b9050600073ffffffffffffffffffffffffffffffffffffffff168173ffffffffffffffffffffffffffffffffffffffff1603610e98576040517f08c379a0000000000000000000000000000000000000000000000000000000008152600401610e8f90613abe565b60405180910390fd5b80915050919050565b610ea9612d2b565b600360008381526020019081526020016000206040518060a0016040529081600082015481526020016001820160009054906101000a900473ffffffffffffffffffffffffffffffffffffffff1673ffffffffffffffffffffffffffffffffffffffff1673ffffffffffffffffffffffffffffffffffffffff1681526020016002820160009054906101000a900473ffffffffffffffffffffffffffffffffffffffff1673ffffffffffffffffffffffffffffffffffffffff1673ffffffffffffffffffffffffffffffffffffffff168152602001600382015481526020016004820160009054906101000a900460ff1615151515815250509050919050565b6000600254905090565b60008073ffffffffffffffffffffffffffffffffffffffff168273ffffffffffffffffffffffffffffffffffffffff1603611023576040517f08c379a000000000000000000000000000000000000000000000000000000000815260040161101a90613b50565b60405180910390fd5b600760008373ffffffffffffffffffffffffffffffffffffffff1673ffffffffffffffffffffffffffffffffffffffff168152602001908152602001600020549050919050565b60006003600083815260200190815260200160002060020160009054906101000a900473ffffffffffffffffffffffffffffffffffffffff16905060008054906101000a900473ffffffffffffffffffffffffffffffffffffffff1673ffffffffffffffffffffffffffffffffffffffff163373ffffffffffffffffffffffffffffffffffffffff16148061112a57508073ffffffffffffffffffffffffffffffffffffffff163373ffffffffffffffffffffffffffffffffffffffff16145b611169576040517f08c379a000000000000000000000000000000000000000000000000000000000815260040161116090613be2565b60405180910390fd5b611174338284611dd2565b600360008381526020019081526020016000206000808201600090556001820160006101000a81549073ffffffffffffffffffffffffffffffffffffffff02191690556002820160006101000a81549073ffffffffffffffffffffffffffffffffffffffff021916905560038201600090556004820160006101000a81549060ff021916905550505050565b3373ffffffffffffffffffffffffffffffffffffffff1660008054906101000a900473ffffffffffffffffffffffffffffffffffffffff1673ffffffffffffffffffffffffffffffffffffffff161461128e576040517f08c379a000000000000000000000000000000000000000000000000000000000815260040161128590613c74565b60405180910390fd5b8060028190555050565b6060600580546112a79061378f565b80601f01602080910402602001604051908101604052809291908181526020018280546112d39061378f565b80156113205780601f106112f557610100808354040283529160200191611320565b820191906000526020600020905b81548152906001019060200180831161130357829003601f168201915b5050505050905090565b60006003600083815260200190815260200160002060030154905060006003600084815260200190815260200160002060020160009054906101000a900473ffffffffffffffffffffffffffffffffffffffff1690508134146113c2576040517f08c379a00000000000000000000000000000000000000000000000000000000081526004016113b990613ce0565b60405180910390fd5b60016003600085815260200190815260200160002060040160006101000a81548160ff021916908315150217905550336003600085815260200190815260200160002060020160006101000a81548173ffffffffffffffffffffffffffffffffffffffff021916908373ffffffffffffffffffffffffffffffffffffffff160217905550611450600c612108565b61145b303385611dd2565b6114653084610762565b60008054906101000a900473ffffffffffffffffffffffffffffffffffffffff1673ffffffffffffffffffffffffffffffffffffffff166108fc6002549081150290604051600060405180830381858888f193505050501580156114cd573d6000803e3d6000fd5b508073ffffffffffffffffffffffffffffffffffffffff166108fc349081150290604051600060405180830381858888f19350505050158015611514573d6000803e3d6000fd5b50505050565b61152c611525611c6e565b838361211e565b5050565b61154161153b611c6e565b83611d3d565b611580576040517f08c379a000000000000000000000000000000000000000000000000000000000815260040161157790613956565b60405180910390fd5b61158c8484848461228a565b50505050565b606061159d82611c23565b6000600a600084815260200190815260200160002080546115bd9061378f565b80601f01602080910402602001604051908101604052809291908181526020018280546115e99061378f565b80156116365780601f1061160b57610100808354040283529160200191611636565b820191906000526020600020905b81548152906001019060200180831161161957829003601f168201915b5050505050905060006116476122e6565b9050600081510361165c57819250505061169f565b600082511115611691578082604051602001611679929190613d3c565b6040516020818303038152906040529250505061169f565b61169a846122fd565b925050505b919050565b600d60009054906101000a900473ffffffffffffffffffffffffffffffffffffffff1673ffffffffffffffffffffffffffffffffffffffff1663a9059cbb33600d60009054906101000a900473ffffffffffffffffffffffffffffffffffffffff1673ffffffffffffffffffffffffffffffffffffffff166370a08231306040518263ffffffff1660e01b815260040161173e9190613059565b602060405180830381865afa15801561175b573d6000803e3d6000fd5b505050506040513d601f19601f8201168201806040525081019061177f9190613d75565b6040518363ffffffff1660e01b815260040161179c929190613da2565b6020604051808303816000875af11580156117bb573d6000803e3d6000fd5b505050506040513d601f19601f820116820180604052508101906117df9190613de0565b50565b606060006117f0600b611d2f565b905060008167ffffffffffffffff81111561180e5761180d613475565b5b60405190808252806020026020018201604052801561184757816020015b611834612d2b565b81526020019060019003908161182c5790505b50905060008080600090505b84600010156119aa5760018161186991906139a5565b91506000600360008481526020019081526020016000209050806040518060a0016040529081600082015481526020016001820160009054906101000a900473ffffffffffffffffffffffffffffffffffffffff1673ffffffffffffffffffffffffffffffffffffffff1673ffffffffffffffffffffffffffffffffffffffff1681526020016002820160009054906101000a900473ffffffffffffffffffffffffffffffffffffffff1673ffffffffffffffffffffffffffffffffffffffff1673ffffffffffffffffffffffffffffffffffffffff168152602001600382015481526020016004820160009054906101000a900460ff16151515158152505085858151811061197c5761197b613a43565b5b602002602001018190525060018461199491906139a5565b93505080806119a2906139fb565b915050611853565b508294505050505090565b6000600d60009054906101000a900473ffffffffffffffffffffffffffffffffffffffff1673ffffffffffffffffffffffffffffffffffffffff166323b872dd33306001546040518463ffffffff1660e01b8152600401611a1893929190613e0d565b6020604051808303816000875af1158015611a37573d6000803e3d6000fd5b505050506040513d601f19601f82011682018060405250810190611a5b9190613de0565b50611a66600b612108565b6000611a72600b611d2f565b9050611a7e3382612365565b611a888185612383565b611a92818461242e565b8091505092915050565b6000600960008473ffffffffffffffffffffffffffffffffffffffff1673ffffffffffffffffffffffffffffffffffffffff16815260200190815260200160002060008373ffffffffffffffffffffffffffffffffffffffff1673ffffffffffffffffffffffffffffffffffffffff16815260200190815260200160002060009054906101000a900460ff16905092915050565b6000611b3c600b611d2f565b905090565b60007f80ac58cd000000000000000000000000000000000000000000000000000000007bffffffffffffffffffffffffffffffffffffffffffffffffffffffff1916827bffffffffffffffffffffffffffffffffffffffffffffffffffffffff19161480611c0c57507f5b5e139f000000000000000000000000000000000000000000000000000000007bffffffffffffffffffffffffffffffffffffffffffffffffffffffff1916827bffffffffffffffffffffffffffffffffffffffffffffffffffffffff1916145b80611c1c5750611c1b82612631565b5b9050919050565b611c2c8161269b565b611c6b576040517f08c379a0000000000000000000000000000000000000000000000000000000008152600401611c6290613abe565b60405180910390fd5b50565b600033905090565b816008600083815260200190815260200160002060006101000a81548173ffffffffffffffffffffffffffffffffffffffff021916908373ffffffffffffffffffffffffffffffffffffffff160217905550808273ffffffffffffffffffffffffffffffffffffffff16611ce983610e1b565b73ffffffffffffffffffffffffffffffffffffffff167f8c5be1e5ebec7d5bd14f71427d1e84f3dd0314c0f7b2291e5b200ac8c7c3b92560405160405180910390a45050565b600081600001549050919050565b600080611d4983610e1b565b90508073ffffffffffffffffffffffffffffffffffffffff168473ffffffffffffffffffffffffffffffffffffffff161480611d8b5750611d8a8185611a9c565b5b80611dc957508373ffffffffffffffffffffffffffffffffffffffff16611db18461071c565b73ffffffffffffffffffffffffffffffffffffffff16145b91505092915050565b8273ffffffffffffffffffffffffffffffffffffffff16611df282610e1b565b73ffffffffffffffffffffffffffffffffffffffff1614611e48576040517f08c379a0000000000000000000000000000000000000000000000000000000008152600401611e3f90613eb6565b60405180910390fd5b600073ffffffffffffffffffffffffffffffffffffffff168273ffffffffffffffffffffffffffffffffffffffff1603611eb7576040517f08c379a0000000000000000000000000000000000000000000000000000000008152600401611eae90613f48565b60405180910390fd5b611ec483838360016126dc565b8273ffffffffffffffffffffffffffffffffffffffff16611ee482610e1b565b73ffffffffffffffffffffffffffffffffffffffff1614611f3a576040517f08c379a0000000000000000000000000000000000000000000000000000000008152600401611f3190613eb6565b60405180910390fd5b6008600082815260200190815260200160002060006101000a81549073ffffffffffffffffffffffffffffffffffffffff02191690556001600760008573ffffffffffffffffffffffffffffffffffffffff1673ffffffffffffffffffffffffffffffffffffffff168152602001908152602001600020600082825403925050819055506001600760008473ffffffffffffffffffffffffffffffffffffffff1673ffffffffffffffffffffffffffffffffffffffff16815260200190815260200160002060008282540192505081905550816006600083815260200190815260200160002060006101000a81548173ffffffffffffffffffffffffffffffffffffffff021916908373ffffffffffffffffffffffffffffffffffffffff160217905550808273ffffffffffffffffffffffffffffffffffffffff168473ffffffffffffffffffffffffffffffffffffffff167fddf252ad1be2c89b69c2b068fc378daa952ba7f163c4a11628f55a4df523b3ef60405160405180910390a46120c683838360016126e2565b505050565b60006006600083815260200190815260200160002060009054906101000a900473ffffffffffffffffffffffffffffffffffffffff169050919050565b6001816000016000828254019250508190555050565b8173ffffffffffffffffffffffffffffffffffffffff168373ffffffffffffffffffffffffffffffffffffffff160361218c576040517f08c379a000000000000000000000000000000000000000000000000000000000815260040161218390613fb4565b60405180910390fd5b80600960008573ffffffffffffffffffffffffffffffffffffffff1673ffffffffffffffffffffffffffffffffffffffff16815260200190815260200160002060008473ffffffffffffffffffffffffffffffffffffffff1673ffffffffffffffffffffffffffffffffffffffff16815260200190815260200160002060006101000a81548160ff0219169083151502179055508173ffffffffffffffffffffffffffffffffffffffff168373ffffffffffffffffffffffffffffffffffffffff167f17307eab39ab6107e8899845ad3d59bd9653f200f220920489ca2b5937696c318360405161227d9190612edf565b60405180910390a3505050565b612295848484611dd2565b6122a1848484846126e8565b6122e0576040517f08c379a00000000000000000000000000000000000000000000000000000000081526004016122d790614046565b60405180910390fd5b50505050565b606060405180602001604052806000815250905090565b606061230882611c23565b60006123126122e6565b90506000815111612332576040518060200160405280600081525061235d565b8061233c8461286f565b60405160200161234d929190613d3c565b6040516020818303038152906040525b915050919050565b61237f82826040518060200160405280600081525061293d565b5050565b61238c8261269b565b6123cb576040517f08c379a00000000000000000000000000000000000000000000000000000000081526004016123c2906140d8565b60405180910390fd5b80600a600084815260200190815260200160002090805190602001906123f2929190612d88565b507ff8e1a15aba9398e019f0b49df1a4fde98ee17ae345cb5f6b5e2c27f5033e8ce7826040516124229190613204565b60405180910390a15050565b6002543414612472576040517f08c379a00000000000000000000000000000000000000000000000000000000081526004016124699061416a565b60405180910390fd5b600081116124b5576040517f08c379a00000000000000000000000000000000000000000000000000000000081526004016124ac906141d6565b60405180910390fd5b6040518060a001604052808381526020013073ffffffffffffffffffffffffffffffffffffffff1681526020013373ffffffffffffffffffffffffffffffffffffffff16815260200182815260200160011515815250600360008481526020019081526020016000206000820151816000015560208201518160010160006101000a81548173ffffffffffffffffffffffffffffffffffffffff021916908373ffffffffffffffffffffffffffffffffffffffff16021790555060408201518160020160006101000a81548173ffffffffffffffffffffffffffffffffffffffff021916908373ffffffffffffffffffffffffffffffffffffffff1602179055506060820151816003015560808201518160040160006101000a81548160ff0219169083151502179055509050506125ee333084611dd2565b817f4f6fd952feb64205f79cb104160879d8b4e3bf57214b00c5a76e8118d9a1bdc1303384600160405161262594939291906141f6565b60405180910390a25050565b60007f01ffc9a7000000000000000000000000000000000000000000000000000000007bffffffffffffffffffffffffffffffffffffffffffffffffffffffff1916827bffffffffffffffffffffffffffffffffffffffffffffffffffffffff1916149050919050565b60008073ffffffffffffffffffffffffffffffffffffffff166126bd836120cb565b73ffffffffffffffffffffffffffffffffffffffff1614159050919050565b50505050565b50505050565b60006127098473ffffffffffffffffffffffffffffffffffffffff16612998565b15612862578373ffffffffffffffffffffffffffffffffffffffff1663150b7a02612732611c6e565b8786866040518563ffffffff1660e01b81526004016127549493929190614290565b6020604051808303816000875af192505050801561279057506040513d601f19601f8201168201806040525081019061278d91906142f1565b60015b612812573d80600081146127c0576040519150601f19603f3d011682016040523d82523d6000602084013e6127c5565b606091505b50600081510361280a576040517f08c379a000000000000000000000000000000000000000000000000000000000815260040161280190614046565b60405180910390fd5b805181602001fd5b63150b7a0260e01b7bffffffffffffffffffffffffffffffffffffffffffffffffffffffff1916817bffffffffffffffffffffffffffffffffffffffffffffffffffffffff191614915050612867565b600190505b949350505050565b60606000600161287e846129bb565b01905060008167ffffffffffffffff81111561289d5761289c613475565b5b6040519080825280601f01601f1916602001820160405280156128cf5781602001600182028036833780820191505090505b509050600082602001820190505b600115612932578080600190039150507f3031323334353637383961626364656600000000000000000000000000000000600a86061a8153600a85816129265761292561431e565b5b049450600085036128dd575b819350505050919050565b6129478383612b0e565b61295460008484846126e8565b612993576040517f08c379a000000000000000000000000000000000000000000000000000000000815260040161298a90614046565b60405180910390fd5b505050565b6000808273ffffffffffffffffffffffffffffffffffffffff163b119050919050565b600080600090507a184f03e93ff9f4daa797ed6e38ed64bf6a1f0100000000000000008310612a19577a184f03e93ff9f4daa797ed6e38ed64bf6a1f0100000000000000008381612a0f57612a0e61431e565b5b0492506040810190505b6d04ee2d6d415b85acef81000000008310612a56576d04ee2d6d415b85acef81000000008381612a4c57612a4b61431e565b5b0492506020810190505b662386f26fc100008310612a8557662386f26fc100008381612a7b57612a7a61431e565b5b0492506010810190505b6305f5e1008310612aae576305f5e1008381612aa457612aa361431e565b5b0492506008810190505b6127108310612ad3576127108381612ac957612ac861431e565b5b0492506004810190505b60648310612af65760648381612aec57612aeb61431e565b5b0492506002810190505b600a8310612b05576001810190505b80915050919050565b600073ffffffffffffffffffffffffffffffffffffffff168273ffffffffffffffffffffffffffffffffffffffff1603612b7d576040517f08c379a0000000000000000000000000000000000000000000000000000000008152600401612b7490614399565b60405180910390fd5b612b868161269b565b15612bc6576040517f08c379a0000000000000000000000000000000000000000000000000000000008152600401612bbd90614405565b60405180910390fd5b612bd46000838360016126dc565b612bdd8161269b565b15612c1d576040517f08c379a0000000000000000000000000000000000000000000000000000000008152600401612c1490614405565b60405180910390fd5b6001600760008473ffffffffffffffffffffffffffffffffffffffff1673ffffffffffffffffffffffffffffffffffffffff16815260200190815260200160002060008282540192505081905550816006600083815260200190815260200160002060006101000a81548173ffffffffffffffffffffffffffffffffffffffff021916908373ffffffffffffffffffffffffffffffffffffffff160217905550808273ffffffffffffffffffffffffffffffffffffffff16600073ffffffffffffffffffffffffffffffffffffffff167fddf252ad1be2c89b69c2b068fc378daa952ba7f163c4a11628f55a4df523b3ef60405160405180910390a4612d276000838360016126e2565b5050565b6040518060a0016040528060008152602001600073ffffffffffffffffffffffffffffffffffffffff168152602001600073ffffffffffffffffffffffffffffffffffffffff168152602001600081526020016000151581525090565b828054612d949061378f565b90600052602060002090601f016020900481019282612db65760008555612dfd565b82601f10612dcf57805160ff1916838001178555612dfd565b82800160010185558215612dfd579182015b82811115612dfc578251825591602001919060010190612de1565b5b509050612e0a9190612e0e565b5090565b5b80821115612e27576000816000905550600101612e0f565b5090565b6000604051905090565b600080fd5b600080fd5b60007fffffffff0000000000000000000000000000000000000000000000000000000082169050919050565b612e7481612e3f565b8114612e7f57600080fd5b50565b600081359050612e9181612e6b565b92915050565b600060208284031215612ead57612eac612e35565b5b6000612ebb84828501612e82565b91505092915050565b60008115159050919050565b612ed981612ec4565b82525050565b6000602082019050612ef46000830184612ed0565b92915050565b600081519050919050565b600082825260208201905092915050565b60005b83811015612f34578082015181840152602081019050612f19565b83811115612f43576000848401525b50505050565b6000601f19601f8301169050919050565b6000612f6582612efa565b612f6f8185612f05565b9350612f7f818560208601612f16565b612f8881612f49565b840191505092915050565b60006020820190508181036000830152612fad8184612f5a565b905092915050565b6000819050919050565b612fc881612fb5565b8114612fd357600080fd5b50565b600081359050612fe581612fbf565b92915050565b60006020828403121561300157613000612e35565b5b600061300f84828501612fd6565b91505092915050565b600073ffffffffffffffffffffffffffffffffffffffff82169050919050565b600061304382613018565b9050919050565b61305381613038565b82525050565b600060208201905061306e600083018461304a565b92915050565b61307d81613038565b811461308857600080fd5b50565b60008135905061309a81613074565b92915050565b600080604083850312156130b7576130b6612e35565b5b60006130c58582860161308b565b92505060206130d685828601612fd6565b9150509250929050565b6130e981612fb5565b82525050565b60006130fa82613018565b9050919050565b61310a816130ef565b82525050565b61311981612ec4565b82525050565b60a08201600082015161313560008501826130e0565b5060208201516131486020850182613101565b50604082015161315b6040850182613101565b50606082015161316e60608501826130e0565b5060808201516131816080850182613110565b50505050565b600060a08201905061319c600083018461311f565b92915050565b6000806000606084860312156131bb576131ba612e35565b5b60006131c98682870161308b565b93505060206131da8682870161308b565b92505060406131eb86828701612fd6565b9150509250925092565b6131fe81612fb5565b82525050565b600060208201905061321960008301846131f5565b92915050565b6000819050919050565b600061324461323f61323a84613018565b61321f565b613018565b9050919050565b600061325682613229565b9050919050565b60006132688261324b565b9050919050565b6132788161325d565b82525050565b6000602082019050613293600083018461326f565b92915050565b600081519050919050565b600082825260208201905092915050565b6000819050602082019050919050565b60a0820160008201516132db60008501826130e0565b5060208201516132ee6020850182613101565b5060408201516133016040850182613101565b50606082015161331460608501826130e0565b5060808201516133276080850182613110565b50505050565b600061333983836132c5565b60a08301905092915050565b6000602082019050919050565b600061335d82613299565b61336781856132a4565b9350613372836132b5565b8060005b838110156133a357815161338a888261332d565b975061339583613345565b925050600181019050613376565b5085935050505092915050565b600060208201905081810360008301526133ca8184613352565b905092915050565b6000602082840312156133e8576133e7612e35565b5b60006133f68482850161308b565b91505092915050565b61340881612ec4565b811461341357600080fd5b50565b600081359050613425816133ff565b92915050565b6000806040838503121561344257613441612e35565b5b60006134508582860161308b565b925050602061346185828601613416565b9150509250929050565b600080fd5b600080fd5b7f4e487b7100000000000000000000000000000000000000000000000000000000600052604160045260246000fd5b6134ad82612f49565b810181811067ffffffffffffffff821117156134cc576134cb613475565b5b80604052505050565b60006134df612e2b565b90506134eb82826134a4565b919050565b600067ffffffffffffffff82111561350b5761350a613475565b5b61351482612f49565b9050602081019050919050565b82818337600083830152505050565b600061354361353e846134f0565b6134d5565b90508281526020810184848401111561355f5761355e613470565b5b61356a848285613521565b509392505050565b600082601f8301126135875761358661346b565b5b8135613597848260208601613530565b91505092915050565b600080600080608085870312156135ba576135b9612e35565b5b60006135c88782880161308b565b94505060206135d98782880161308b565b93505060406135ea87828801612fd6565b925050606085013567ffffffffffffffff81111561360b5761360a612e3a565b5b61361787828801613572565b91505092959194509250565b600067ffffffffffffffff82111561363e5761363d613475565b5b61364782612f49565b9050602081019050919050565b600061366761366284613623565b6134d5565b90508281526020810184848401111561368357613682613470565b5b61368e848285613521565b509392505050565b600082601f8301126136ab576136aa61346b565b5b81356136bb848260208601613654565b91505092915050565b600080604083850312156136db576136da612e35565b5b600083013567ffffffffffffffff8111156136f9576136f8612e3a565b5b61370585828601613696565b925050602061371685828601612fd6565b9150509250929050565b6000806040838503121561373757613736612e35565b5b60006137458582860161308b565b92505060206137568582860161308b565b9150509250929050565b7f4e487b7100000000000000000000000000000000000000000000000000000000600052602260045260246000fd5b600060028204905060018216806137a757607f821691505b6020821081036137ba576137b9613760565b5b50919050565b7f4552433732313a20617070726f76616c20746f2063757272656e74206f776e6560008201527f7200000000000000000000000000000000000000000000000000000000000000602082015250565b600061381c602183612f05565b9150613827826137c0565b604082019050919050565b6000602082019050818103600083015261384b8161380f565b9050919050565b7f4552433732313a20617070726f76652063616c6c6572206973206e6f7420746f60008201527f6b656e206f776e6572206f7220617070726f76656420666f7220616c6c000000602082015250565b60006138ae603d83612f05565b91506138b982613852565b604082019050919050565b600060208201905081810360008301526138dd816138a1565b9050919050565b7f4552433732313a2063616c6c6572206973206e6f7420746f6b656e206f776e6560008201527f72206f7220617070726f76656400000000000000000000000000000000000000602082015250565b6000613940602d83612f05565b915061394b826138e4565b604082019050919050565b6000602082019050818103600083015261396f81613933565b9050919050565b7f4e487b7100000000000000000000000000000000000000000000000000000000600052601160045260246000fd5b60006139b082612fb5565b91506139bb83612fb5565b9250827fffffffffffffffffffffffffffffffffffffffffffffffffffffffffffffffff038211156139f0576139ef613976565b5b828201905092915050565b6000613a0682612fb5565b91507fffffffffffffffffffffffffffffffffffffffffffffffffffffffffffffffff8203613a3857613a37613976565b5b600182019050919050565b7f4e487b7100000000000000000000000000000000000000000000000000000000600052603260045260246000fd5b7f4552433732313a20696e76616c696420746f6b656e2049440000000000000000600082015250565b6000613aa8601883612f05565b9150613ab382613a72565b602082019050919050565b60006020820190508181036000830152613ad781613a9b565b9050919050565b7f4552433732313a2061646472657373207a65726f206973206e6f74206120766160008201527f6c6964206f776e65720000000000000000000000000000000000000000000000602082015250565b6000613b3a602983612f05565b9150613b4582613ade565b604082019050919050565b60006020820190508181036000830152613b6981613b2d565b9050919050565b7f4572726f722c2043616c6c6572206973206e6f74204f776e6572206f7220536560008201527f6c6c657200000000000000000000000000000000000000000000000000000000602082015250565b6000613bcc602483612f05565b9150613bd782613b70565b604082019050919050565b60006020820190508181036000830152613bfb81613bbf565b9050919050565b7f4f6e6c79206f776e6572206f6620746865204e46542063616e2075706461746560008201527f2074686520707269636500000000000000000000000000000000000000000000602082015250565b6000613c5e602a83612f05565b9150613c6982613c02565b604082019050919050565b60006020820190508181036000830152613c8d81613c51565b9050919050565b7f5375626d69742074686520707269636520696e206f7264657200000000000000600082015250565b6000613cca601983612f05565b9150613cd582613c94565b602082019050919050565b60006020820190508181036000830152613cf981613cbd565b9050919050565b600081905092915050565b6000613d1682612efa565b613d208185613d00565b9350613d30818560208601612f16565b80840191505092915050565b6000613d488285613d0b565b9150613d548284613d0b565b91508190509392505050565b600081519050613d6f81612fbf565b92915050565b600060208284031215613d8b57613d8a612e35565b5b6000613d9984828501613d60565b91505092915050565b6000604082019050613db7600083018561304a565b613dc460208301846131f5565b9392505050565b600081519050613dda816133ff565b92915050565b600060208284031215613df657613df5612e35565b5b6000613e0484828501613dcb565b91505092915050565b6000606082019050613e22600083018661304a565b613e2f602083018561304a565b613e3c60408301846131f5565b949350505050565b7f4552433732313a207472616e736665722066726f6d20696e636f72726563742060008201527f6f776e6572000000000000000000000000000000000000000000000000000000602082015250565b6000613ea0602583612f05565b9150613eab82613e44565b604082019050919050565b60006020820190508181036000830152613ecf81613e93565b9050919050565b7f4552433732313a207472616e7366657220746f20746865207a65726f2061646460008201527f7265737300000000000000000000000000000000000000000000000000000000602082015250565b6000613f32602483612f05565b9150613f3d82613ed6565b604082019050919050565b60006020820190508181036000830152613f6181613f25565b9050919050565b7f4552433732313a20617070726f766520746f2063616c6c657200000000000000600082015250565b6000613f9e601983612f05565b9150613fa982613f68565b602082019050919050565b60006020820190508181036000830152613fcd81613f91565b9050919050565b7f4552433732313a207472616e7366657220746f206e6f6e20455243373231526560008201527f63656976657220696d706c656d656e7465720000000000000000000000000000602082015250565b6000614030603283612f05565b915061403b82613fd4565b604082019050919050565b6000602082019050818103600083015261405f81614023565b9050919050565b7f45524337323155524953746f726167653a2055524920736574206f66206e6f6e60008201527f6578697374656e7420746f6b656e000000000000000000000000000000000000602082015250565b60006140c2602e83612f05565b91506140cd82614066565b604082019050919050565b600060208201905081810360008301526140f1816140b5565b9050919050565b7f436865636b696e6720746f2073656e642074686520636f72726563742070726960008201527f6365000000000000000000000000000000000000000000000000000000000000602082015250565b6000614154602283612f05565b915061415f826140f8565b604082019050919050565b6000602082019050818103600083015261418381614147565b9050919050565b7f546865207072696365206d757374206265206d6f7265207468616e207a65726f600082015250565b60006141c0602083612f05565b91506141cb8261418a565b602082019050919050565b600060208201905081810360008301526141ef816141b3565b9050919050565b600060808201905061420b600083018761304a565b614218602083018661304a565b61422560408301856131f5565b6142326060830184612ed0565b95945050505050565b600081519050919050565b600082825260208201905092915050565b60006142628261423b565b61426c8185614246565b935061427c818560208601612f16565b61428581612f49565b840191505092915050565b60006080820190506142a5600083018761304a565b6142b2602083018661304a565b6142bf60408301856131f5565b81810360608301526142d18184614257565b905095945050505050565b6000815190506142eb81612e6b565b92915050565b60006020828403121561430757614306612e35565b5b6000614315848285016142dc565b91505092915050565b7f4e487b7100000000000000000000000000000000000000000000000000000000600052601260045260246000fd5b7f4552433732313a206d696e7420746f20746865207a65726f2061646472657373600082015250565b6000614383602083612f05565b915061438e8261434d565b602082019050919050565b600060208201905081810360008301526143b281614376565b9050919050565b7f4552433732313a20746f6b656e20616c7265616479206d696e74656400000000600082015250565b60006143ef601c83612f05565b91506143fa826143b9565b602082019050919050565b6000602082019050818103600083015261441e816143e2565b905091905056fea2646970667358221220c59bf46e43302c3543dbd8e2b5b9573b22a9d893cf02b38ce039eb18d667a9b764736f6c634300080e0033",
  "immutableReferences": {},
  "source": "// SPDX-License-Identifier: MIT\r\npragma solidity ^0.8.9;\r\n\r\n// OpenZeppelin modules\r\nimport \"@openzeppelin/contracts/token/ERC721/ERC721.sol\";\r\nimport \"@openzeppelin/contracts/token/ERC20/IERC20.sol\";\r\nimport \"@openzeppelin/contracts/token/ERC721/extensions/ERC721URIStorage.sol\";\r\nimport \"@openzeppelin/contracts/utils/Counters.sol\";\r\n\r\n// Custom modules\r\nimport \"./interfaces/IBCYMarket.sol\";\r\nimport \"./types/DataTypes.sol\";\r\nimport \"./storage/BCYMarketStorage.sol\";\r\n\r\ncontract BCYMarket is BCYMarketStorage,IBCYMarket, \r\n    ERC721URIStorage\r\n    {\r\n\r\n    using Counters for Counters.Counter;\r\n    /// @dev _tokenIds variable has the most recent minted tokenId \r\n    Counters.Counter private _tokenIds;\r\n    /// @dev Keeps track of the number of items sold on the marketplace\r\n    Counters.Counter private _itemsSold;\r\n    /// @dev\r\n    IERC20 public bcyAddress;\r\n\r\n    /**\r\n     * @notice Constructor sets the name of the contract\r\n     * @dev Developers can update the contract\r\n     * TODO At the moment use normal Proxy to update, to let in the future integrate Diamond Proxy\r\n     * NOTE Accepts only BCY to mint NFTs writing the address of the token in deployment\r\n     */\r\n    constructor() ERC721(\"BlockConvey\", \"BCY\") {\r\n        owner = payable(msg.sender);\r\n        bcyAddress = IERC20(0x3608631C72fa89C27DE0F703a61907Bf945133B1);\r\n    }\r\n\r\n    /**\r\n     * @notice\r\n     * @dev\r\n     * @param _listPrice is the price that user wants to change their item\r\n     */\r\n    function updatePrice(uint256 _listPrice) public payable {\r\n        require(owner == msg.sender, \"Only owner of the NFT can update the price\");\r\n        listPrice = _listPrice;\r\n    }\r\n\r\n    /**\r\n     * @notice This function is to create a item into the market\r\n     * @param tokenURI is the URL that saves the Item metadata\r\n     * @param price is the price that the user will create their item\r\n     */\r\n    function createMarketItem(\r\n        string memory tokenURI,\r\n        uint256 price\r\n    ) public payable returns (uint256) {\r\n        /// @dev\r\n        bcyAddress.transferFrom(msg.sender, address(this), rate);\r\n        /// @dev Increment the tokenId counter\r\n        _tokenIds.increment();\r\n        uint256 newTokenId = _tokenIds.current();\r\n        /// @dev Mint the NFT (item) with tokenId newTokenId to the address who called createMarketItem function\r\n        _safeMint(msg.sender, newTokenId);\r\n        /// @dev Map the tokenId to the tokenURI (IPFS URL saving the metadata)\r\n        _setTokenURI(newTokenId, tokenURI);\r\n        /// @dev Helper function to update variables and emit an event\r\n        createListedItem(newTokenId, price);\r\n\r\n        return newTokenId;\r\n    }\r\n\r\n    /**\r\n     * @notice This function is executed inside createMarketItem\r\n     * @dev Use one function (_transfer) to transfer the cryptocurrencies to this address (address(this))\r\n     * @param tokenId is the Id of the item created\r\n     * @param price is the price of the item created\r\n     */\r\n    function createListedItem(uint256 tokenId, uint256 price) private {\r\n        /// @dev Make sure the msg.sender sent enough funds to pay for create item\r\n        require(msg.value == listPrice, \"Checking to send the correct price\");\r\n        require(price > 0, \"The price must be more than zero\");\r\n\r\n        /// @dev Update the mapping of tokenIds to Token details\r\n        idToListedToken[tokenId] = DataTypes.MarketItem(\r\n            tokenId,\r\n            payable(address(this)),\r\n            payable(msg.sender),\r\n            price,\r\n            true\r\n        );\r\n\r\n        _transfer(msg.sender, address(this), tokenId);\r\n\r\n        /// @dev Announce that the item has been created\r\n        emit ItemListedSuccess(\r\n            tokenId,\r\n            address(this),\r\n            msg.sender,\r\n            price,\r\n            true\r\n        );\r\n    }\r\n\r\n    function removeMarketItem(uint256 tokenId) external {\r\n        address seller = idToListedToken[tokenId].seller;\r\n        require(msg.sender == owner || msg.sender == seller,'Error, Caller is not Owner or Seller');\r\n        _transfer(msg.sender, seller , tokenId);\r\n        delete idToListedToken[tokenId];\r\n    }\r\n\r\n    /**\r\n     * @notice This function will return all the NFTs currenty listed\r\n     * @dev It will return the properties inserted into the struct MarketItem\r\n     */\r\n    function getAllNFTs() public view returns(DataTypes.MarketItem[] memory) {\r\n        uint256 nftcount = _tokenIds.current();\r\n        DataTypes.MarketItem[] memory tokens = new DataTypes.MarketItem[](nftcount);\r\n        uint256 currentIndex = 0;\r\n        uint256 currentId;\r\n\r\n        for(uint256 i = 0; 0 < nftcount; i++) {\r\n            currentId = i + 1;\r\n            DataTypes.MarketItem storage currentItem = idToListedToken[currentId];\r\n            tokens[currentIndex] = currentItem;\r\n            currentIndex += 1;\r\n        }\r\n\r\n        return tokens;\r\n    }\r\n\r\n    /**\r\n     * @notice This function will returns all the NFT that the current user is owner or seller in\r\n     * @dev Will return the properties into the struct MarketItem\r\n     */\r\n    function getMyNFTs() public view returns (DataTypes.MarketItem[] memory) {\r\n        uint256 totalItemCount = _tokenIds.current();\r\n        uint256 itemCount = 0;\r\n        uint256 currentIndex = 0;\r\n        uint256 currentId;\r\n\r\n        for(uint256 i=0; i < totalItemCount; i++) {\r\n            if(idToListedToken[i+1].owner == msg.sender || idToListedToken[i+1].seller == msg.sender) {\r\n                itemCount += 1;\r\n            }\r\n        }\r\n\r\n        DataTypes.MarketItem[] memory items = new DataTypes.MarketItem[](itemCount);\r\n        for(uint256 i=0; i < totalItemCount; i++) {\r\n            if(idToListedToken[i+1].owner == msg.sender || idToListedToken[i+1].seller == msg.sender) {\r\n                currentId = i+1;\r\n                DataTypes.MarketItem storage currentItem = idToListedToken[currentId];\r\n                items[currentIndex] = currentItem;\r\n                currentIndex += 1;\r\n            }\r\n        }\r\n\r\n        return items;\r\n    }\r\n\r\n    /**\r\n     * @notice This function is to execute the sale\r\n     * @dev Execute the sale with just the tokenId\r\n     * @param tokenId set the ID of the item to sale\r\n     */\r\n\r\n    function sale(uint256 tokenId) public payable {\r\n        /// @dev Set new vars\r\n        uint256 price = idToListedToken[tokenId].price;\r\n        address seller = idToListedToken[tokenId].seller;\r\n        /// @dev Submit the price in order\r\n        require(msg.value == price, \"Submit the price in order\");\r\n\r\n        /// @dev Update the details of the item\r\n        idToListedToken[tokenId].currentlyListed = true;\r\n        idToListedToken[tokenId].seller = payable(msg.sender);\r\n        _itemsSold.increment();    \r\n\r\n        /// @dev Transfer the item to the buyer\r\n        _transfer(address(this), msg.sender, tokenId);\r\n        approve(address(this), tokenId);\r\n\r\n        /// @dev Transfer the listing price to creator\r\n        payable(owner).transfer(listPrice);\r\n        payable(seller).transfer(msg.value);\r\n    }\r\n\r\n   \r\n\r\n    function withdrawToken() public {\r\n        bcyAddress.transfer(msg.sender, bcyAddress.balanceOf(address(this)));\r\n    }\r\n\r\n    /************************ */\r\n    /**** GETTER FUNCTIONS ****/\r\n    /************************ */\r\n    \r\n    function getListPrice() public view returns (uint256) {\r\n        return listPrice;\r\n    }\r\n\r\n    function getLatestIdToListedItem() public view returns (DataTypes.MarketItem memory) {\r\n        uint256 currentTokenId = _tokenIds.current();\r\n        return idToListedToken[currentTokenId];\r\n    }\r\n\r\n    function getListedItemForId(uint256 tokenId) public view returns (DataTypes.MarketItem memory) {\r\n        return idToListedToken[tokenId];\r\n    }\r\n\r\n    function getCurrentToken() public view returns (uint256) {\r\n        return _tokenIds.current();\r\n    }\r\n}",
  "sourcePath": "D:\\BlockConvey\\Carbon to Stone - SmartContract\\contracts\\BCYMarket.sol",
  "compiler": {
    "name": "solc",
    "version": "0.8.14+commit.80d49f37.Emscripten.clang"
  },
  "schemaVersion": "3.4.7",
  "updatedAt": "2023-07-03T11:47:50.299Z",
  "networkType": "ethereum",
  "devdoc": {
    "kind": "dev",
    "methods": {
      "approve(address,uint256)": {
        "details": "See {IERC721-approve}."
      },
      "balanceOf(address)": {
        "details": "See {IERC721-balanceOf}."
      },
      "constructor": {
        "details": "Developers can update the contract TODO At the moment use normal Proxy to update, to let in the future integrate Diamond Proxy NOTE Accepts only BCY to mint NFTs writing the address of the token in deployment"
      },
      "createMarketItem(string,uint256)": {
        "params": {
          "price": "is the price that the user will create their item",
          "tokenURI": "is the URL that saves the Item metadata"
        }
      },
      "getAllNFTs()": {
        "details": "It will return the properties inserted into the struct MarketItem"
      },
      "getApproved(uint256)": {
        "details": "See {IERC721-getApproved}."
      },
      "getCurrentToken()": {
        "details": "It will be a uint256"
      },
      "getLatestIdToListedItem()": {
        "details": "It will returns a struct"
      },
      "getListPrice()": {
        "details": "It will returns a uint256 (price)"
      },
      "getListedItemForId(uint256)": {
        "details": "It will look for into the struct MarketItem"
      },
      "getMyNFTs()": {
        "details": "Will return the properties into the struct MarketItem"
      },
      "isApprovedForAll(address,address)": {
        "details": "See {IERC721-isApprovedForAll}."
      },
      "name()": {
        "details": "See {IERC721Metadata-name}."
      },
      "ownerOf(uint256)": {
        "details": "See {IERC721-ownerOf}."
      },
      "removeMarketItem(uint256)": {
        "params": {
          "tokenId": "is the tokenId of the listed item."
        }
      },
      "safeTransferFrom(address,address,uint256)": {
        "details": "See {IERC721-safeTransferFrom}."
      },
      "safeTransferFrom(address,address,uint256,bytes)": {
        "details": "See {IERC721-safeTransferFrom}."
      },
      "sale(uint256)": {
        "details": "Execute the sale with just the tokenId",
        "params": {
          "tokenId": "set the ID of the item to sale"
        }
      },
      "setApprovalForAll(address,bool)": {
        "details": "See {IERC721-setApprovalForAll}."
      },
      "supportsInterface(bytes4)": {
        "details": "See {IERC165-supportsInterface}"
      },
      "symbol()": {
        "details": "See {IERC721Metadata-symbol}."
      },
      "tokenURI(uint256)": {
        "details": "See {IERC721Metadata-tokenURI}."
      },
      "transferFrom(address,address,uint256)": {
        "details": "See {IERC721-transferFrom}."
      },
      "updatePrice(uint256)": {
        "params": {
          "_listPrice": "is the price that user wants to change their item"
        }
      }
    },
    "stateVariables": {
      "_itemsSold": {
        "details": "Keeps track of the number of items sold on the marketplace"
      },
      "_tokenIds": {
        "details": "_tokenIds variable has the most recent minted tokenId "
      }
    },
    "version": 1
  },
  "userdoc": {
    "events": {
      "ItemListedSuccess(uint256,address,address,uint256,bool)": {
        "notice": "Emitted when a market item has been created succesfully"
      }
    },
    "kind": "user",
    "methods": {
      "constructor": {
        "notice": "Constructor sets the name of the contract"
      },
      "createMarketItem(string,uint256)": {
        "notice": "This function is to create a item into the market"
      },
      "getAllNFTs()": {
        "notice": "This function will return all the NFTs currenty listed"
      },
      "getCurrentToken()": {
        "notice": "This function will return the current token"
      },
      "getLatestIdToListedItem()": {
        "notice": "This function will return the latest item listed in the ecommerce"
      },
      "getListPrice()": {
        "notice": "This function will return the price of the item listed"
      },
      "getListedItemForId(uint256)": {
        "notice": "This function will return the items corresponding for the ID"
      },
      "getMyNFTs()": {
        "notice": "This function will returns all the NFT that the current user is owner or seller in"
      },
      "removeMarketItem(uint256)": {
        "notice": "This function is to remove a listed item with tokenId"
      },
      "sale(uint256)": {
        "notice": "This function is to execute the sale"
      },
      "updatePrice(uint256)": {
        "notice": "@dev"
      }
    },
    "version": 1
  }
}