{
  "contractName": "CXEMarketStorage",
  "abi": [
    {
      "inputs": [],
      "name": "rate",
      "outputs": [
        {
          "internalType": "uint256",
          "name": "",
          "type": "uint256"
        }
      ],
      "stateMutability": "view",
      "type": "function"
    }
  ],
  "bytecode": "0x608060405268056bc75e2d6310000060015566038d7ea4c6800060025534801561002857600080fd5b5060b3806100376000396000f3fe6080604052348015600f57600080fd5b506004361060285760003560e01c80632c4e722e14602d575b600080fd5b60336047565b604051603e91906064565b60405180910390f35b60015481565b6000819050919050565b605e81604d565b82525050565b6000602082019050607760008301846057565b9291505056fea264697066735822122014e8fd5c132b7d521936740a19640969ce6fd41499ce09e05c79cc14e526c16464736f6c634300080e0033",
  "immutableReferences": {},
  "source": "// SPDX-License-Identifier: MIT\r\npragma solidity ^0.8.9;\r\n\r\nimport \"../types/DataTypes.sol\";\r\n\r\n\r\ncontract CXEMarketStorage {\r\n\r\n    /// @dev Owner is the contract address that created the smart contract\r\n    address payable owner;\r\n    /// @dev\r\n    uint256 public rate = 100 * 10 ** 18;\r\n    /// @dev The gee charged by the ecommerce to be allowed to list an NFT\r\n    uint256 listPrice = 0.001 ether;\r\n    /// @dev This mapping mas tokenId to the NFT info and is helpful when retrieving details about a tokenId\r\n    mapping(uint256 => DataTypes.MarketItem) internal idToListedToken;\r\n    \r\n}",
  "sourcePath": "D:\\BlockConvey\\Carbon to Stone - SmartContract\\contracts\\storage\\BCYMarketStorage.sol",
  "compiler": {
    "name": "solc",
    "version": "0.8.14+commit.80d49f37.Emscripten.clang"
  },
  "schemaVersion": "3.4.7",
  "updatedAt": "2023-07-03T06:50:28.193Z",
  "devdoc": {
    "kind": "dev",
    "methods": {},
    "stateVariables": {
      "idToListedToken": {
        "details": "This mapping mas tokenId to the NFT info and is helpful when retrieving details about a tokenId"
      },
      "listPrice": {
        "details": "The gee charged by the ecommerce to be allowed to list an NFT"
      },
      "owner": {
        "details": "Owner is the contract address that created the smart contract"
      }
    },
    "version": 1
  },
  "userdoc": {
    "kind": "user",
    "methods": {},
    "version": 1
  }
}