{
  "contractName": "NFT",
  "abi": [
    {
      "inputs": [],
      "stateMutability": "nonpayable",
      "type": "constructor"
    },
    {
      "anonymous": false,
      "inputs": [
        {
          "indexed": true,
          "internalType": "address",
          "name": "account",
          "type": "address"
        },
        {
          "indexed": true,
          "internalType": "address",
          "name": "operator",
          "type": "address"
        },
        {
          "indexed": false,
          "internalType": "bool",
          "name": "approved",
          "type": "bool"
        }
      ],
      "name": "ApprovalForAll",
      "type": "event"
    },
    {
      "anonymous": false,
      "inputs": [
        {
          "indexed": true,
          "internalType": "address",
          "name": "operator",
          "type": "address"
        },
        {
          "indexed": true,
          "internalType": "address",
          "name": "from",
          "type": "address"
        },
        {
          "indexed": true,
          "internalType": "address",
          "name": "to",
          "type": "address"
        },
        {
          "indexed": false,
          "internalType": "uint256[]",
          "name": "ids",
          "type": "uint256[]"
        },
        {
          "indexed": false,
          "internalType": "uint256[]",
          "name": "values",
          "type": "uint256[]"
        }
      ],
      "name": "TransferBatch",
      "type": "event"
    },
    {
      "anonymous": false,
      "inputs": [
        {
          "indexed": true,
          "internalType": "address",
          "name": "operator",
          "type": "address"
        },
        {
          "indexed": true,
          "internalType": "address",
          "name": "from",
          "type": "address"
        },
        {
          "indexed": true,
          "internalType": "address",
          "name": "to",
          "type": "address"
        },
        {
          "indexed": false,
          "internalType": "uint256",
          "name": "id",
          "type": "uint256"
        },
        {
          "indexed": false,
          "internalType": "uint256",
          "name": "value",
          "type": "uint256"
        }
      ],
      "name": "TransferSingle",
      "type": "event"
    },
    {
      "anonymous": false,
      "inputs": [
        {
          "indexed": false,
          "internalType": "string",
          "name": "value",
          "type": "string"
        },
        {
          "indexed": true,
          "internalType": "uint256",
          "name": "id",
          "type": "uint256"
        }
      ],
      "name": "URI",
      "type": "event"
    },
    {
      "inputs": [
        {
          "internalType": "address",
          "name": "account",
          "type": "address"
        },
        {
          "internalType": "uint256",
          "name": "id",
          "type": "uint256"
        }
      ],
      "name": "balanceOf",
      "outputs": [
        {
          "internalType": "uint256",
          "name": "",
          "type": "uint256"
        }
      ],
      "stateMutability": "view",
      "type": "function"
    },
    {
      "inputs": [
        {
          "internalType": "address[]",
          "name": "accounts",
          "type": "address[]"
        },
        {
          "internalType": "uint256[]",
          "name": "ids",
          "type": "uint256[]"
        }
      ],
      "name": "balanceOfBatch",
      "outputs": [
        {
          "internalType": "uint256[]",
          "name": "",
          "type": "uint256[]"
        }
      ],
      "stateMutability": "view",
      "type": "function"
    },
    {
      "inputs": [
        {
          "internalType": "address",
          "name": "from",
          "type": "address"
        },
        {
          "internalType": "address",
          "name": "to",
          "type": "address"
        },
        {
          "internalType": "uint256[]",
          "name": "ids",
          "type": "uint256[]"
        },
        {
          "internalType": "uint256[]",
          "name": "amounts",
          "type": "uint256[]"
        },
        {
          "internalType": "bytes",
          "name": "data",
          "type": "bytes"
        }
      ],
      "name": "safeBatchTransferFrom",
      "outputs": [],
      "stateMutability": "nonpayable",
      "type": "function"
    },
    {
      "inputs": [
        {
          "internalType": "address",
          "name": "from",
          "type": "address"
        },
        {
          "internalType": "address",
          "name": "to",
          "type": "address"
        },
        {
          "internalType": "uint256",
          "name": "id",
          "type": "uint256"
        },
        {
          "internalType": "uint256",
          "name": "amount",
          "type": "uint256"
        },
        {
          "internalType": "bytes",
          "name": "data",
          "type": "bytes"
        }
      ],
      "name": "safeTransferFrom",
      "outputs": [],
      "stateMutability": "nonpayable",
      "type": "function"
    },
    {
      "inputs": [
        {
          "internalType": "address",
          "name": "operator",
          "type": "address"
        },
        {
          "internalType": "bool",
          "name": "approved",
          "type": "bool"
        }
      ],
      "name": "setApprovalForAll",
      "outputs": [],
      "stateMutability": "nonpayable",
      "type": "function"
    },
    {
      "inputs": [
        {
          "internalType": "bytes4",
          "name": "interfaceId",
          "type": "bytes4"
        }
      ],
      "name": "supportsInterface",
      "outputs": [
        {
          "internalType": "bool",
          "name": "",
          "type": "bool"
        }
      ],
      "stateMutability": "view",
      "type": "function"
    },
    {
      "inputs": [
        {
          "internalType": "uint256",
          "name": "",
          "type": "uint256"
        }
      ],
      "name": "uri",
      "outputs": [
        {
          "internalType": "string",
          "name": "",
          "type": "string"
        }
      ],
      "stateMutability": "view",
      "type": "function"
    },
    {
      "inputs": [
        {
          "internalType": "uint64",
          "name": "_tokenId",
          "type": "uint64"
        },
        {
          "internalType": "uint64",
          "name": "_quantity",
          "type": "uint64"
        }
      ],
      "name": "mintNFT",
      "outputs": [
        {
          "internalType": "uint256",
          "name": "",
          "type": "uint256"
        }
      ],
      "stateMutability": "nonpayable",
      "type": "function"
    },
    {
      "inputs": [
        {
          "internalType": "uint256",
          "name": "tokenId",
          "type": "uint256"
        }
      ],
      "name": "getApproved",
      "outputs": [
        {
          "internalType": "address",
          "name": "",
          "type": "address"
        }
      ],
      "stateMutability": "view",
      "type": "function"
    },
    {
      "inputs": [
        {
          "internalType": "address",
          "name": "owner",
          "type": "address"
        },
        {
          "internalType": "address",
          "name": "operator",
          "type": "address"
        }
      ],
      "name": "isApprovedForAll",
      "outputs": [
        {
          "internalType": "bool",
          "name": "",
          "type": "bool"
        }
      ],
      "stateMutability": "view",
      "type": "function"
    },
    {
      "inputs": [
        {
          "internalType": "uint256",
          "name": "tokenId",
          "type": "uint256"
        }
      ],
      "name": "ownerOf",
      "outputs": [
        {
          "internalType": "address",
          "name": "",
          "type": "address"
        }
      ],
      "stateMutability": "view",
      "type": "function"
    }
  ],
  "bytecode": "0x60806040523480156200001157600080fd5b506040518060600160405280603c815260200162002d9a603c91396200003d816200009960201b60201c565b5073601aaf38c9d3ec1d4b378d0e527d2a538a4d9dff600760006101000a81548173ffffffffffffffffffffffffffffffffffffffff021916908373ffffffffffffffffffffffffffffffffffffffff160217905550620001c9565b8060029080519060200190620000b1929190620000b5565b5050565b828054620000c39062000194565b90600052602060002090601f016020900481019282620000e7576000855562000133565b82601f106200010257805160ff191683800117855562000133565b8280016001018555821562000133579182015b828111156200013257825182559160200191906001019062000115565b5b50905062000142919062000146565b5090565b5b808211156200016157600081600090555060010162000147565b5090565b7f4e487b7100000000000000000000000000000000000000000000000000000000600052602260045260246000fd5b60006002820490506001821680620001ad57607f821691505b602082108103620001c357620001c262000165565b5b50919050565b612bc180620001d96000396000f3fe608060405234801561001057600080fd5b50600436106100a85760003560e01c80634e1273f4116100715780634e1273f4146101895780636352211e146101b95780638146c456146101e9578063a22cb46514610219578063e985e9c514610235578063f242432a14610265576100a8565b8062fdd58e146100ad57806301ffc9a7146100dd578063081812fc1461010d5780630e89341c1461013d5780632eb2c2d61461016d575b600080fd5b6100c760048036038101906100c2919061184a565b610281565b6040516100d49190611899565b60405180910390f35b6100f760048036038101906100f2919061190c565b610349565b6040516101049190611954565b60405180910390f35b6101276004803603810190610122919061196f565b61042b565b60405161013491906119ab565b60405180910390f35b6101576004803603810190610152919061196f565b610471565b6040516101649190611a5f565b60405180910390f35b61018760048036038101906101829190611c7e565b610505565b005b6101a3600480360381019061019e9190611e10565b6105a6565b6040516101b09190611f46565b60405180910390f35b6101d360048036038101906101ce919061196f565b6106bf565b6040516101e091906119ab565b60405180910390f35b61020360048036038101906101fe9190611fa8565b610745565b6040516102109190611899565b60405180910390f35b610233600480360381019061022e9190612014565b6107c5565b005b61024f600480360381019061024a9190612054565b6107db565b60405161025c9190611954565b60405180910390f35b61027f600480360381019061027a9190612094565b61086f565b005b60008073ffffffffffffffffffffffffffffffffffffffff168373ffffffffffffffffffffffffffffffffffffffff16036102f1576040517f08c379a00000000000000000000000000000000000000000000000000000000081526004016102e89061219d565b60405180910390fd5b60008083815260200190815260200160002060008473ffffffffffffffffffffffffffffffffffffffff1673ffffffffffffffffffffffffffffffffffffffff16815260200190815260200160002054905092915050565b60007fd9b67a26000000000000000000000000000000000000000000000000000000007bffffffffffffffffffffffffffffffffffffffffffffffffffffffff1916827bffffffffffffffffffffffffffffffffffffffffffffffffffffffff1916148061041457507f0e89341c000000000000000000000000000000000000000000000000000000007bffffffffffffffffffffffffffffffffffffffffffffffffffffffff1916827bffffffffffffffffffffffffffffffffffffffffffffffffffffffff1916145b80610424575061042382610910565b5b9050919050565b60006104368261097a565b6005600083815260200190815260200160002060009054906101000a900473ffffffffffffffffffffffffffffffffffffffff169050919050565b606060028054610480906121ec565b80601f01602080910402602001604051908101604052809291908181526020018280546104ac906121ec565b80156104f95780601f106104ce576101008083540402835291602001916104f9565b820191906000526020600020905b8154815290600101906020018083116104dc57829003601f168201915b50505050509050919050565b61050d6109c5565b73ffffffffffffffffffffffffffffffffffffffff168573ffffffffffffffffffffffffffffffffffffffff16148061055357506105528561054d6109c5565b6107db565b5b610592576040517f08c379a00000000000000000000000000000000000000000000000000000000081526004016105899061228f565b60405180910390fd5b61059f85858585856109cd565b5050505050565b606081518351146105ec576040517f08c379a00000000000000000000000000000000000000000000000000000000081526004016105e390612321565b60405180910390fd5b6000835167ffffffffffffffff81111561060957610608611a86565b5b6040519080825280602002602001820160405280156106375781602001602082028036833780820191505090505b50905060005b84518110156106b45761068485828151811061065c5761065b612341565b5b602002602001015185838151811061067757610676612341565b5b6020026020010151610281565b82828151811061069757610696612341565b5b602002602001018181525050806106ad9061239f565b905061063d565b508091505092915050565b6000806106cb83610cee565b9050600073ffffffffffffffffffffffffffffffffffffffff168173ffffffffffffffffffffffffffffffffffffffff160361073c576040517f08c379a000000000000000000000000000000000000000000000000000000000815260040161073390612433565b60405180910390fd5b80915050919050565b60006107516006610d2b565b600061075d6006610d41565b905061078e338567ffffffffffffffff168567ffffffffffffffff1660405180602001604052806000815250610d4f565b6107bb600760009054906101000a900473ffffffffffffffffffffffffffffffffffffffff1660016107c5565b8091505092915050565b6107d76107d06109c5565b8383610eff565b5050565b6000600460008473ffffffffffffffffffffffffffffffffffffffff1673ffffffffffffffffffffffffffffffffffffffff16815260200190815260200160002060008373ffffffffffffffffffffffffffffffffffffffff1673ffffffffffffffffffffffffffffffffffffffff16815260200190815260200160002060009054906101000a900460ff16905092915050565b6108776109c5565b73ffffffffffffffffffffffffffffffffffffffff168573ffffffffffffffffffffffffffffffffffffffff1614806108bd57506108bc856108b76109c5565b6107db565b5b6108fc576040517f08c379a00000000000000000000000000000000000000000000000000000000081526004016108f39061228f565b60405180910390fd5b610909858585858561106b565b5050505050565b60007f01ffc9a7000000000000000000000000000000000000000000000000000000007bffffffffffffffffffffffffffffffffffffffffffffffffffffffff1916827bffffffffffffffffffffffffffffffffffffffffffffffffffffffff1916149050919050565b61098381611306565b6109c2576040517f08c379a00000000000000000000000000000000000000000000000000000000081526004016109b99061249f565b60405180910390fd5b50565b600033905090565b8151835114610a11576040517f08c379a0000000000000000000000000000000000000000000000000000000008152600401610a0890612531565b60405180910390fd5b600073ffffffffffffffffffffffffffffffffffffffff168473ffffffffffffffffffffffffffffffffffffffff1603610a80576040517f08c379a0000000000000000000000000000000000000000000000000000000008152600401610a77906125c3565b60405180910390fd5b6000610a8a6109c5565b9050610a9a818787878787611347565b60005b8451811015610c4b576000858281518110610abb57610aba612341565b5b602002602001015190506000858381518110610ada57610ad9612341565b5b60200260200101519050600080600084815260200190815260200160002060008b73ffffffffffffffffffffffffffffffffffffffff1673ffffffffffffffffffffffffffffffffffffffff16815260200190815260200160002054905081811015610b7b576040517f08c379a0000000000000000000000000000000000000000000000000000000008152600401610b7290612655565b60405180910390fd5b81810360008085815260200190815260200160002060008c73ffffffffffffffffffffffffffffffffffffffff1673ffffffffffffffffffffffffffffffffffffffff168152602001908152602001600020819055508160008085815260200190815260200160002060008b73ffffffffffffffffffffffffffffffffffffffff1673ffffffffffffffffffffffffffffffffffffffff1681526020019081526020016000206000828254610c309190612675565b9250508190555050505080610c449061239f565b9050610a9d565b508473ffffffffffffffffffffffffffffffffffffffff168673ffffffffffffffffffffffffffffffffffffffff168273ffffffffffffffffffffffffffffffffffffffff167f4a39dc06d4c0dbc64b70af90fd698a233a518aa5d07e595d983b8c0526c8f7fb8787604051610cc29291906126cb565b60405180910390a4610cd881878787878761134f565b610ce6818787878787611357565b505050505050565b60006003600083815260200190815260200160002060009054906101000a900473ffffffffffffffffffffffffffffffffffffffff169050919050565b6001816000016000828254019250508190555050565b600081600001549050919050565b600073ffffffffffffffffffffffffffffffffffffffff168473ffffffffffffffffffffffffffffffffffffffff1603610dbe576040517f08c379a0000000000000000000000000000000000000000000000000000000008152600401610db590612774565b60405180910390fd5b6000610dc86109c5565b90506000610dd58561152e565b90506000610de28561152e565b9050610df383600089858589611347565b8460008088815260200190815260200160002060008973ffffffffffffffffffffffffffffffffffffffff1673ffffffffffffffffffffffffffffffffffffffff1681526020019081526020016000206000828254610e529190612675565b925050819055508673ffffffffffffffffffffffffffffffffffffffff16600073ffffffffffffffffffffffffffffffffffffffff168473ffffffffffffffffffffffffffffffffffffffff167fc3d58168c5ae7397731d063d5bbf3d657854427343f4c083240f7aacaa2d0f628989604051610ed0929190612794565b60405180910390a4610ee78360008985858961134f565b610ef6836000898989896115a8565b50505050505050565b8173ffffffffffffffffffffffffffffffffffffffff168373ffffffffffffffffffffffffffffffffffffffff1603610f6d576040517f08c379a0000000000000000000000000000000000000000000000000000000008152600401610f649061282f565b60405180910390fd5b80600160008573ffffffffffffffffffffffffffffffffffffffff1673ffffffffffffffffffffffffffffffffffffffff16815260200190815260200160002060008473ffffffffffffffffffffffffffffffffffffffff1673ffffffffffffffffffffffffffffffffffffffff16815260200190815260200160002060006101000a81548160ff0219169083151502179055508173ffffffffffffffffffffffffffffffffffffffff168373ffffffffffffffffffffffffffffffffffffffff167f17307eab39ab6107e8899845ad3d59bd9653f200f220920489ca2b5937696c318360405161105e9190611954565b60405180910390a3505050565b600073ffffffffffffffffffffffffffffffffffffffff168473ffffffffffffffffffffffffffffffffffffffff16036110da576040517f08c379a00000000000000000000000000000000000000000000000000000000081526004016110d1906125c3565b60405180910390fd5b60006110e46109c5565b905060006110f18561152e565b905060006110fe8561152e565b905061110e838989858589611347565b600080600088815260200190815260200160002060008a73ffffffffffffffffffffffffffffffffffffffff1673ffffffffffffffffffffffffffffffffffffffff168152602001908152602001600020549050858110156111a5576040517f08c379a000000000000000000000000000000000000000000000000000000000815260040161119c90612655565b60405180910390fd5b85810360008089815260200190815260200160002060008b73ffffffffffffffffffffffffffffffffffffffff1673ffffffffffffffffffffffffffffffffffffffff168152602001908152602001600020819055508560008089815260200190815260200160002060008a73ffffffffffffffffffffffffffffffffffffffff1673ffffffffffffffffffffffffffffffffffffffff168152602001908152602001600020600082825461125a9190612675565b925050819055508773ffffffffffffffffffffffffffffffffffffffff168973ffffffffffffffffffffffffffffffffffffffff168573ffffffffffffffffffffffffffffffffffffffff167fc3d58168c5ae7397731d063d5bbf3d657854427343f4c083240f7aacaa2d0f628a8a6040516112d7929190612794565b60405180910390a46112ed848a8a86868a61134f565b6112fb848a8a8a8a8a6115a8565b505050505050505050565b60008073ffffffffffffffffffffffffffffffffffffffff1661132883610cee565b73ffffffffffffffffffffffffffffffffffffffff1614159050919050565b505050505050565b505050505050565b6113768473ffffffffffffffffffffffffffffffffffffffff1661177f565b15611526578373ffffffffffffffffffffffffffffffffffffffff1663bc197c8187878686866040518663ffffffff1660e01b81526004016113bc9594939291906128a4565b6020604051808303816000875af19250505080156113f857506040513d601f19601f820116820180604052508101906113f59190612921565b60015b61149d5761140461295b565b806308c379a003611460575061141861297d565b806114235750611462565b806040517f08c379a00000000000000000000000000000000000000000000000000000000081526004016114579190611a5f565b60405180910390fd5b505b6040517f08c379a000000000000000000000000000000000000000000000000000000000815260040161149490612a7f565b60405180910390fd5b63bc197c8160e01b7bffffffffffffffffffffffffffffffffffffffffffffffffffffffff1916817bffffffffffffffffffffffffffffffffffffffffffffffffffffffff191614611524576040517f08c379a000000000000000000000000000000000000000000000000000000000815260040161151b90612b11565b60405180910390fd5b505b505050505050565b60606000600167ffffffffffffffff81111561154d5761154c611a86565b5b60405190808252806020026020018201604052801561157b5781602001602082028036833780820191505090505b509050828160008151811061159357611592612341565b5b60200260200101818152505080915050919050565b6115c78473ffffffffffffffffffffffffffffffffffffffff1661177f565b15611777578373ffffffffffffffffffffffffffffffffffffffff1663f23a6e6187878686866040518663ffffffff1660e01b815260040161160d959493929190612b31565b6020604051808303816000875af192505050801561164957506040513d601f19601f820116820180604052508101906116469190612921565b60015b6116ee5761165561295b565b806308c379a0036116b1575061166961297d565b8061167457506116b3565b806040517f08c379a00000000000000000000000000000000000000000000000000000000081526004016116a89190611a5f565b60405180910390fd5b505b6040517f08c379a00000000000000000000000000000000000000000000000000000000081526004016116e590612a7f565b60405180910390fd5b63f23a6e6160e01b7bffffffffffffffffffffffffffffffffffffffffffffffffffffffff1916817bffffffffffffffffffffffffffffffffffffffffffffffffffffffff191614611775576040517f08c379a000000000000000000000000000000000000000000000000000000000815260040161176c90612b11565b60405180910390fd5b505b505050505050565b6000808273ffffffffffffffffffffffffffffffffffffffff163b119050919050565b6000604051905090565b600080fd5b600080fd5b600073ffffffffffffffffffffffffffffffffffffffff82169050919050565b60006117e1826117b6565b9050919050565b6117f1816117d6565b81146117fc57600080fd5b50565b60008135905061180e816117e8565b92915050565b6000819050919050565b61182781611814565b811461183257600080fd5b50565b6000813590506118448161181e565b92915050565b60008060408385031215611861576118606117ac565b5b600061186f858286016117ff565b925050602061188085828601611835565b9150509250929050565b61189381611814565b82525050565b60006020820190506118ae600083018461188a565b92915050565b60007fffffffff0000000000000000000000000000000000000000000000000000000082169050919050565b6118e9816118b4565b81146118f457600080fd5b50565b600081359050611906816118e0565b92915050565b600060208284031215611922576119216117ac565b5b6000611930848285016118f7565b91505092915050565b60008115159050919050565b61194e81611939565b82525050565b60006020820190506119696000830184611945565b92915050565b600060208284031215611985576119846117ac565b5b600061199384828501611835565b91505092915050565b6119a5816117d6565b82525050565b60006020820190506119c0600083018461199c565b92915050565b600081519050919050565b600082825260208201905092915050565b60005b83811015611a005780820151818401526020810190506119e5565b83811115611a0f576000848401525b50505050565b6000601f19601f8301169050919050565b6000611a31826119c6565b611a3b81856119d1565b9350611a4b8185602086016119e2565b611a5481611a15565b840191505092915050565b60006020820190508181036000830152611a798184611a26565b905092915050565b600080fd5b7f4e487b7100000000000000000000000000000000000000000000000000000000600052604160045260246000fd5b611abe82611a15565b810181811067ffffffffffffffff82111715611add57611adc611a86565b5b80604052505050565b6000611af06117a2565b9050611afc8282611ab5565b919050565b600067ffffffffffffffff821115611b1c57611b1b611a86565b5b602082029050602081019050919050565b600080fd5b6000611b45611b4084611b01565b611ae6565b90508083825260208201905060208402830185811115611b6857611b67611b2d565b5b835b81811015611b915780611b7d8882611835565b845260208401935050602081019050611b6a565b5050509392505050565b600082601f830112611bb057611baf611a81565b5b8135611bc0848260208601611b32565b91505092915050565b600080fd5b600067ffffffffffffffff821115611be957611be8611a86565b5b611bf282611a15565b9050602081019050919050565b82818337600083830152505050565b6000611c21611c1c84611bce565b611ae6565b905082815260208101848484011115611c3d57611c3c611bc9565b5b611c48848285611bff565b509392505050565b600082601f830112611c6557611c64611a81565b5b8135611c75848260208601611c0e565b91505092915050565b600080600080600060a08688031215611c9a57611c996117ac565b5b6000611ca8888289016117ff565b9550506020611cb9888289016117ff565b945050604086013567ffffffffffffffff811115611cda57611cd96117b1565b5b611ce688828901611b9b565b935050606086013567ffffffffffffffff811115611d0757611d066117b1565b5b611d1388828901611b9b565b925050608086013567ffffffffffffffff811115611d3457611d336117b1565b5b611d4088828901611c50565b9150509295509295909350565b600067ffffffffffffffff821115611d6857611d67611a86565b5b602082029050602081019050919050565b6000611d8c611d8784611d4d565b611ae6565b90508083825260208201905060208402830185811115611daf57611dae611b2d565b5b835b81811015611dd85780611dc488826117ff565b845260208401935050602081019050611db1565b5050509392505050565b600082601f830112611df757611df6611a81565b5b8135611e07848260208601611d79565b91505092915050565b60008060408385031215611e2757611e266117ac565b5b600083013567ffffffffffffffff811115611e4557611e446117b1565b5b611e5185828601611de2565b925050602083013567ffffffffffffffff811115611e7257611e716117b1565b5b611e7e85828601611b9b565b9150509250929050565b600081519050919050565b600082825260208201905092915050565b6000819050602082019050919050565b611ebd81611814565b82525050565b6000611ecf8383611eb4565b60208301905092915050565b6000602082019050919050565b6000611ef382611e88565b611efd8185611e93565b9350611f0883611ea4565b8060005b83811015611f39578151611f208882611ec3565b9750611f2b83611edb565b925050600181019050611f0c565b5085935050505092915050565b60006020820190508181036000830152611f608184611ee8565b905092915050565b600067ffffffffffffffff82169050919050565b611f8581611f68565b8114611f9057600080fd5b50565b600081359050611fa281611f7c565b92915050565b60008060408385031215611fbf57611fbe6117ac565b5b6000611fcd85828601611f93565b9250506020611fde85828601611f93565b9150509250929050565b611ff181611939565b8114611ffc57600080fd5b50565b60008135905061200e81611fe8565b92915050565b6000806040838503121561202b5761202a6117ac565b5b6000612039858286016117ff565b925050602061204a85828601611fff565b9150509250929050565b6000806040838503121561206b5761206a6117ac565b5b6000612079858286016117ff565b925050602061208a858286016117ff565b9150509250929050565b600080600080600060a086880312156120b0576120af6117ac565b5b60006120be888289016117ff565b95505060206120cf888289016117ff565b94505060406120e088828901611835565b93505060606120f188828901611835565b925050608086013567ffffffffffffffff811115612112576121116117b1565b5b61211e88828901611c50565b9150509295509295909350565b7f455243313135353a2061646472657373207a65726f206973206e6f742061207660008201527f616c6964206f776e657200000000000000000000000000000000000000000000602082015250565b6000612187602a836119d1565b91506121928261212b565b604082019050919050565b600060208201905081810360008301526121b68161217a565b9050919050565b7f4e487b7100000000000000000000000000000000000000000000000000000000600052602260045260246000fd5b6000600282049050600182168061220457607f821691505b602082108103612217576122166121bd565b5b50919050565b7f455243313135353a2063616c6c6572206973206e6f7420746f6b656e206f776e60008201527f6572206f7220617070726f766564000000000000000000000000000000000000602082015250565b6000612279602e836119d1565b91506122848261221d565b604082019050919050565b600060208201905081810360008301526122a88161226c565b9050919050565b7f455243313135353a206163636f756e747320616e6420696473206c656e67746860008201527f206d69736d617463680000000000000000000000000000000000000000000000602082015250565b600061230b6029836119d1565b9150612316826122af565b604082019050919050565b6000602082019050818103600083015261233a816122fe565b9050919050565b7f4e487b7100000000000000000000000000000000000000000000000000000000600052603260045260246000fd5b7f4e487b7100000000000000000000000000000000000000000000000000000000600052601160045260246000fd5b60006123aa82611814565b91507fffffffffffffffffffffffffffffffffffffffffffffffffffffffffffffffff82036123dc576123db612370565b5b600182019050919050565b7f4552433732313a20696e76616c696420746f6b656e2049440000000000000000600082015250565b600061241d6018836119d1565b9150612428826123e7565b602082019050919050565b6000602082019050818103600083015261244c81612410565b9050919050565b7f455243313135353a20696e76616c696420746f6b656e20494400000000000000600082015250565b60006124896019836119d1565b915061249482612453565b602082019050919050565b600060208201905081810360008301526124b88161247c565b9050919050565b7f455243313135353a2069647320616e6420616d6f756e7473206c656e6774682060008201527f6d69736d61746368000000000000000000000000000000000000000000000000602082015250565b600061251b6028836119d1565b9150612526826124bf565b604082019050919050565b6000602082019050818103600083015261254a8161250e565b9050919050565b7f455243313135353a207472616e7366657220746f20746865207a65726f20616460008201527f6472657373000000000000000000000000000000000000000000000000000000602082015250565b60006125ad6025836119d1565b91506125b882612551565b604082019050919050565b600060208201905081810360008301526125dc816125a0565b9050919050565b7f455243313135353a20696e73756666696369656e742062616c616e636520666f60008201527f72207472616e7366657200000000000000000000000000000000000000000000602082015250565b600061263f602a836119d1565b915061264a826125e3565b604082019050919050565b6000602082019050818103600083015261266e81612632565b9050919050565b600061268082611814565b915061268b83611814565b9250827fffffffffffffffffffffffffffffffffffffffffffffffffffffffffffffffff038211156126c0576126bf612370565b5b828201905092915050565b600060408201905081810360008301526126e58185611ee8565b905081810360208301526126f98184611ee8565b90509392505050565b7f455243313135353a206d696e7420746f20746865207a65726f2061646472657360008201527f7300000000000000000000000000000000000000000000000000000000000000602082015250565b600061275e6021836119d1565b915061276982612702565b604082019050919050565b6000602082019050818103600083015261278d81612751565b9050919050565b60006040820190506127a9600083018561188a565b6127b6602083018461188a565b9392505050565b7f455243313135353a2073657474696e6720617070726f76616c2073746174757360008201527f20666f722073656c660000000000000000000000000000000000000000000000602082015250565b60006128196029836119d1565b9150612824826127bd565b604082019050919050565b600060208201905081810360008301526128488161280c565b9050919050565b600081519050919050565b600082825260208201905092915050565b60006128768261284f565b612880818561285a565b93506128908185602086016119e2565b61289981611a15565b840191505092915050565b600060a0820190506128b9600083018861199c565b6128c6602083018761199c565b81810360408301526128d88186611ee8565b905081810360608301526128ec8185611ee8565b90508181036080830152612900818461286b565b90509695505050505050565b60008151905061291b816118e0565b92915050565b600060208284031215612937576129366117ac565b5b60006129458482850161290c565b91505092915050565b60008160e01c9050919050565b600060033d111561297a5760046000803e61297760005161294e565b90505b90565b600060443d10612a0a5761298f6117a2565b60043d036004823e80513d602482011167ffffffffffffffff821117156129b7575050612a0a565b808201805167ffffffffffffffff8111156129d55750505050612a0a565b80602083010160043d0385018111156129f2575050505050612a0a565b612a0182602001850186611ab5565b82955050505050505b90565b7f455243313135353a207472616e7366657220746f206e6f6e2d4552433131353560008201527f526563656976657220696d706c656d656e746572000000000000000000000000602082015250565b6000612a696034836119d1565b9150612a7482612a0d565b604082019050919050565b60006020820190508181036000830152612a9881612a5c565b9050919050565b7f455243313135353a204552433131353552656365697665722072656a6563746560008201527f6420746f6b656e73000000000000000000000000000000000000000000000000602082015250565b6000612afb6028836119d1565b9150612b0682612a9f565b604082019050919050565b60006020820190508181036000830152612b2a81612aee565b9050919050565b600060a082019050612b46600083018861199c565b612b53602083018761199c565b612b60604083018661188a565b612b6d606083018561188a565b8181036080830152612b7f818461286b565b9050969550505050505056fea264697066735822122057785bd931aa8a3ab461454cd3978a2cae093743f1f6ce8734fa569b0a2f221b64736f6c634300080e0033697066733a2f2f516d655243687a39733748396650544b314341753345544a7067387446484b644b4d6266506366615652704752612f312e6a736f6e",
  "immutableReferences": {},
  "source": "// SPDX-License-Identifier: MIT OR Apache-2.0\r\npragma solidity ^0.8.9;\r\n\r\n// OpenZeppelin modules\r\nimport \"../node_modules/@openzeppelin/contracts/token/ERC1155/ERC1155.sol\";\r\nimport \"../node_modules/@openzeppelin/contracts-upgradeable/utils/CountersUpgradeable.sol\";\r\nimport \"./helpers/Errors.sol\";\r\nimport \"./storage/NFTStorage.sol\";\r\n\r\n\r\ncontract NFT is ERC1155,\r\n      \r\n    NFTStorage\r\n    {\r\n\r\n    /// @dev Id for NFTs using Counters\r\n    using CountersUpgradeable for CountersUpgradeable.Counter;\r\n    CountersUpgradeable.Counter internal tokenIds;\r\n    address contractAddress;\r\n\r\n  constructor() ERC1155(\"ipfs://QmeRChz9s7H9fPTK1CAu3ETJpg8tFHKdKMbfPcfaVRpGRa/1.json\") {\r\n        contractAddress = 0x601aAF38C9D3EC1d4b378d0E527D2a538a4D9Dff;\r\n    }\r\n\r\n    function mintNFT(uint64 _tokenId, uint64 _quantity)\r\n        public\r\n        returns (uint256)\r\n    {\r\n        tokenIds.increment();\r\n        uint256 newItemId = tokenIds.current();\r\n        _mint(msg.sender, _tokenId, _quantity, \"\");\r\n        setApprovalForAll(contractAddress, true);\r\n        return newItemId;\r\n    }\r\n\r\n  \r\n \r\n\r\n\r\n    function _requireMinted(uint256 tokenId) internal view virtual {\r\n        require(_exists(tokenId), \"ERC1155: invalid token ID\");\r\n    }\r\n\r\n    function getApproved(uint256 tokenId)\r\n        public\r\n        view\r\n        virtual\r\n        returns (address)\r\n    {\r\n        _requireMinted(tokenId);\r\n        return _tokenApprovals[tokenId];\r\n    }\r\n\r\n    function isApprovedForAll(address owner, address operator)\r\n        public\r\n        view\r\n        virtual\r\n        override\r\n        returns (bool)\r\n    {\r\n        return _operatorApprovals[owner][operator];\r\n    }\r\n\r\n    function _ownerOf(uint256 tokenId) internal view virtual returns (address) {\r\n        return _owners[tokenId];\r\n    }\r\n\r\n    function ownerOf(uint256 tokenId) public view virtual returns (address) {\r\n        address owner = _ownerOf(tokenId);\r\n        require(owner != address(0), \"ERC721: invalid token ID\");\r\n        return owner;\r\n    }\r\n\r\n    function _exists(uint256 tokenId) internal view virtual returns (bool) {\r\n        return _ownerOf(tokenId) != address(0);\r\n    }\r\n\r\n    function _isApprovedOrOwner(address spender, uint256 tokenId)\r\n        internal\r\n        view\r\n        virtual\r\n        returns (bool)\r\n    {\r\n        address owner = ownerOf(tokenId);\r\n        return (spender == owner ||\r\n            isApprovedForAll(owner, spender) ||\r\n            getApproved(tokenId) == spender);\r\n    }\r\n\r\n \r\n\r\n\r\n\r\n\r\n}\r\n",
  "sourcePath": "D:\\BlockConvey\\Carbon to Stone - SmartContract\\contracts\\NFT.sol",
  "compiler": {
    "name": "solc",
    "version": "0.8.14+commit.80d49f37.Emscripten.clang"
  },
  "schemaVersion": "3.4.7",
  "updatedAt": "2023-07-03T06:50:28.153Z",
  "devdoc": {
    "kind": "dev",
    "methods": {
      "balanceOf(address,uint256)": {
        "details": "See {IERC1155-balanceOf}. Requirements: - `account` cannot be the zero address."
      },
      "balanceOfBatch(address[],uint256[])": {
        "details": "See {IERC1155-balanceOfBatch}. Requirements: - `accounts` and `ids` must have the same length."
      },
      "safeBatchTransferFrom(address,address,uint256[],uint256[],bytes)": {
        "details": "See {IERC1155-safeBatchTransferFrom}."
      },
      "safeTransferFrom(address,address,uint256,uint256,bytes)": {
        "details": "See {IERC1155-safeTransferFrom}."
      },
      "setApprovalForAll(address,bool)": {
        "details": "See {IERC1155-setApprovalForAll}."
      },
      "supportsInterface(bytes4)": {
        "details": "See {IERC165-supportsInterface}."
      },
      "uri(uint256)": {
        "details": "See {IERC1155MetadataURI-uri}. This implementation returns the same URI for *all* token types. It relies on the token type ID substitution mechanism https://eips.ethereum.org/EIPS/eip-1155#metadata[defined in the EIP]. Clients calling this function must replace the `\\{id\\}` substring with the actual token type ID."
      }
    },
    "version": 1
  },
  "userdoc": {
    "kind": "user",
    "methods": {},
    "version": 1
  }
}